{
  "contractName": "DronChain",
  "abi": [
    {
      "constant": false,
      "inputs": [],
      "name": "renounceOwnership",
      "outputs": [],
      "payable": false,
      "stateMutability": "nonpayable",
      "type": "function"
    },
    {
      "constant": true,
      "inputs": [],
      "name": "owner",
      "outputs": [
        {
          "name": "",
          "type": "address"
        }
      ],
      "payable": false,
      "stateMutability": "view",
      "type": "function"
    },
    {
      "constant": true,
      "inputs": [],
      "name": "isOwner",
      "outputs": [
        {
          "name": "",
          "type": "bool"
        }
      ],
      "payable": false,
      "stateMutability": "view",
      "type": "function"
    },
    {
      "constant": false,
      "inputs": [
        {
          "name": "newOwner",
          "type": "address"
        }
      ],
      "name": "transferOwnership",
      "outputs": [],
      "payable": false,
      "stateMutability": "nonpayable",
      "type": "function"
    },
    {
      "inputs": [
        {
          "name": "drokens",
          "type": "address"
        },
        {
          "name": "drones",
          "type": "address"
        },
        {
          "name": "parcelas",
          "type": "address"
        },
        {
          "name": "empresas",
          "type": "address"
        }
      ],
      "payable": false,
      "stateMutability": "nonpayable",
      "type": "constructor"
    },
    {
      "anonymous": false,
      "inputs": [
        {
          "indexed": false,
          "name": "dronId",
          "type": "uint256"
        },
        {
          "indexed": false,
          "name": "parcelaId",
          "type": "uint256"
        }
      ],
      "name": "DronContratado",
      "type": "event"
    },
    {
      "anonymous": false,
      "inputs": [
        {
          "indexed": false,
          "name": "parcelaId",
          "type": "uint256"
        },
        {
          "indexed": false,
          "name": "dronId",
          "type": "uint256"
        }
      ],
      "name": "ParcelaFumigada",
      "type": "event"
    },
    {
      "anonymous": false,
      "inputs": [
        {
          "indexed": true,
          "name": "previousOwner",
          "type": "address"
        },
        {
          "indexed": true,
          "name": "newOwner",
          "type": "address"
        }
      ],
      "name": "OwnershipTransferred",
      "type": "event"
    },
    {
      "constant": true,
      "inputs": [],
      "name": "getDrokenContract",
      "outputs": [
        {
          "name": "",
          "type": "address"
        }
      ],
      "payable": false,
      "stateMutability": "view",
      "type": "function"
    },
    {
      "constant": true,
      "inputs": [],
      "name": "getDronesContract",
      "outputs": [
        {
          "name": "",
          "type": "address"
        }
      ],
      "payable": false,
      "stateMutability": "view",
      "type": "function"
    },
    {
      "constant": true,
      "inputs": [],
      "name": "getParcelasContract",
      "outputs": [
        {
          "name": "",
          "type": "address"
        }
      ],
      "payable": false,
      "stateMutability": "view",
      "type": "function"
    },
    {
      "constant": true,
      "inputs": [],
      "name": "getEmpresasContract",
      "outputs": [
        {
          "name": "",
          "type": "address"
        }
      ],
      "payable": false,
      "stateMutability": "view",
      "type": "function"
    },
    {
      "constant": false,
      "inputs": [
        {
          "name": "alturaVueloMinima",
          "type": "uint256"
        },
        {
          "name": "alturaVueloMaxima",
          "type": "uint256"
        },
        {
          "name": "pesticidas",
          "type": "uint256[]"
        },
        {
          "name": "coste",
          "type": "uint256"
        }
      ],
      "name": "registrarDron",
      "outputs": [],
      "payable": false,
      "stateMutability": "nonpayable",
      "type": "function"
    },
    {
      "constant": true,
      "inputs": [
        {
          "name": "dronId",
          "type": "uint256"
        }
      ],
      "name": "getDron",
      "outputs": [
        {
          "name": "id",
          "type": "uint256"
        },
        {
          "name": "empresa",
          "type": "address"
        },
        {
          "name": "alturaVueloMinima",
          "type": "uint256"
        },
        {
          "name": "alturaVueloMaxima",
          "type": "uint256"
        },
        {
          "name": "pesticidas",
          "type": "uint256[]"
        },
        {
          "name": "coste",
          "type": "uint256"
        }
      ],
      "payable": false,
      "stateMutability": "view",
      "type": "function"
    },
    {
      "constant": false,
      "inputs": [
        {
          "name": "alturaVueloMinima",
          "type": "uint256"
        },
        {
          "name": "alturaVueloMaxima",
          "type": "uint256"
        },
        {
          "name": "pesticida",
          "type": "uint256"
        }
      ],
      "name": "registrarParcela",
      "outputs": [],
      "payable": false,
      "stateMutability": "nonpayable",
      "type": "function"
    },
    {
      "constant": false,
      "inputs": [
        {
          "name": "nombre",
          "type": "string"
        },
        {
          "name": "cif",
          "type": "string"
        },
        {
          "name": "cantidadTokens",
          "type": "uint256"
        }
      ],
      "name": "registrarEmpresa",
      "outputs": [],
      "payable": false,
      "stateMutability": "nonpayable",
      "type": "function"
    },
    {
      "constant": true,
      "inputs": [
        {
          "name": "_cuenta",
          "type": "address"
        }
      ],
      "name": "getDatosEmpresa",
      "outputs": [
        {
          "name": "nombre",
          "type": "string"
        },
        {
          "name": "cif",
          "type": "string"
        }
      ],
      "payable": false,
      "stateMutability": "view",
      "type": "function"
    },
    {
      "constant": true,
      "inputs": [
        {
          "name": "_cuenta",
          "type": "address"
        }
      ],
      "name": "isEmpresa",
      "outputs": [
        {
          "name": "",
          "type": "bool"
        }
      ],
      "payable": false,
      "stateMutability": "view",
      "type": "function"
    },
    {
      "constant": true,
      "inputs": [
        {
          "name": "_cuenta",
          "type": "address"
        }
      ],
      "name": "getDrokens",
      "outputs": [
        {
          "name": "",
          "type": "uint256"
        }
      ],
      "payable": false,
      "stateMutability": "view",
      "type": "function"
    },
    {
      "constant": false,
      "inputs": [
        {
          "name": "dronId",
          "type": "uint256"
        },
        {
          "name": "parcelaId",
          "type": "uint256"
        }
      ],
      "name": "contratarDron",
      "outputs": [],
      "payable": false,
      "stateMutability": "nonpayable",
      "type": "function"
    },
    {
      "constant": false,
      "inputs": [
        {
          "name": "dronId",
          "type": "uint256"
        },
        {
          "name": "parcelaId",
          "type": "uint256"
        }
      ],
      "name": "asignarDron",
      "outputs": [],
      "payable": false,
      "stateMutability": "nonpayable",
      "type": "function"
    },
    {
      "constant": false,
      "inputs": [
        {
          "name": "cantidadTokens",
          "type": "uint256"
        }
      ],
      "name": "agregarDrokens",
      "outputs": [],
      "payable": false,
      "stateMutability": "nonpayable",
      "type": "function"
    },
    {
      "constant": false,
      "inputs": [
        {
          "name": "cantidadTokens",
          "type": "uint256"
        }
      ],
      "name": "mintDrokens",
      "outputs": [],
      "payable": false,
      "stateMutability": "nonpayable",
      "type": "function"
    }
  ],
  "bytecode": "0x608060405234801561001057600080fd5b506040516080806130068339810180604052608081101561003057600080fd5b8101908080519060200190929190805190602001909291908051906020019092919080519060200190929190505050336000806101000a81548173ffffffffffffffffffffffffffffffffffffffff021916908373ffffffffffffffffffffffffffffffffffffffff1602179055506000809054906101000a900473ffffffffffffffffffffffffffffffffffffffff1673ffffffffffffffffffffffffffffffffffffffff16600073ffffffffffffffffffffffffffffffffffffffff167f8be0079c531659141344cd1fd0a4f28419497f9722a3daafe3b4186f6b6457e060405160405180910390a383600160006101000a81548173ffffffffffffffffffffffffffffffffffffffff021916908373ffffffffffffffffffffffffffffffffffffffff16021790555082600260006101000a81548173ffffffffffffffffffffffffffffffffffffffff021916908373ffffffffffffffffffffffffffffffffffffffff16021790555081600360006101000a81548173ffffffffffffffffffffffffffffffffffffffff021916908373ffffffffffffffffffffffffffffffffffffffff16021790555080600460006101000a81548173ffffffffffffffffffffffffffffffffffffffff021916908373ffffffffffffffffffffffffffffffffffffffff16021790555050505050612dd4806102326000396000f3fe608060405260043610610107576000357c0100000000000000000000000000000000000000000000000000000000900463ffffffff1680630abd63411461010c578063135975fd1461017157806324c2d6bc146101c85780633f84e63714610203578063599dd09a146102485780635a3d1a181461029f578063715018a61461037e57806385b2d6c814610395578063874530c4146103ec5780638da5cb5b146104435780638f32d59b1461049a578063906a22ce146104c95780639339644e14610632578063ac9f2f4714610677578063b8414e1e1461075a578063d173bb9914610795578063df6617ac146107e4578063f2fde38b1461091a578063f3dc7c3e1461096b575b600080fd5b34801561011857600080fd5b5061015b6004803603602081101561012f57600080fd5b81019080803573ffffffffffffffffffffffffffffffffffffffff1690602001909291905050506109d4565b6040518082815260200191505060405180910390f35b34801561017d57600080fd5b50610186610ad3565b604051808273ffffffffffffffffffffffffffffffffffffffff1673ffffffffffffffffffffffffffffffffffffffff16815260200191505060405180910390f35b3480156101d457600080fd5b50610201600480360360208110156101eb57600080fd5b8101908080359060200190929190505050610afd565b005b34801561020f57600080fd5b506102466004803603604081101561022657600080fd5b810190808035906020019092919080359060200190929190505050610c60565b005b34801561025457600080fd5b5061025d611383565b604051808273ffffffffffffffffffffffffffffffffffffffff1673ffffffffffffffffffffffffffffffffffffffff16815260200191505060405180910390f35b3480156102ab57600080fd5b506102d8600480360360208110156102c257600080fd5b81019080803590602001909291905050506113ad565b604051808781526020018673ffffffffffffffffffffffffffffffffffffffff1673ffffffffffffffffffffffffffffffffffffffff16815260200185815260200184815260200180602001838152602001828103825284818151815260200191508051906020019060200280838360005b8381101561036557808201518184015260208101905061034a565b5050505090500197505050505050505060405180910390f35b34801561038a57600080fd5b5061039361152d565b005b3480156103a157600080fd5b506103aa611668565b604051808273ffffffffffffffffffffffffffffffffffffffff1673ffffffffffffffffffffffffffffffffffffffff16815260200191505060405180910390f35b3480156103f857600080fd5b50610401611692565b604051808273ffffffffffffffffffffffffffffffffffffffff1673ffffffffffffffffffffffffffffffffffffffff16815260200191505060405180910390f35b34801561044f57600080fd5b506104586116bc565b604051808273ffffffffffffffffffffffffffffffffffffffff1673ffffffffffffffffffffffffffffffffffffffff16815260200191505060405180910390f35b3480156104a657600080fd5b506104af6116e5565b604051808215151515815260200191505060405180910390f35b3480156104d557600080fd5b50610630600480360360608110156104ec57600080fd5b810190808035906020019064010000000081111561050957600080fd5b82018360208201111561051b57600080fd5b8035906020019184600183028401116401000000008311171561053d57600080fd5b91908080601f016020809104026020016040519081016040528093929190818152602001838380828437600081840152601f19601f820116905080830192505050505050509192919290803590602001906401000000008111156105a057600080fd5b8201836020820111156105b257600080fd5b803590602001918460018302840111640100000000831117156105d457600080fd5b91908080601f016020809104026020016040519081016040528093929190818152602001838380828437600081840152601f19601f8201169050808301925050505050505091929192908035906020019092919050505061173c565b005b34801561063e57600080fd5b506106756004803603604081101561065557600080fd5b810190808035906020019092919080359060200190929190505050611a2c565b005b34801561068357600080fd5b506107586004803603608081101561069a57600080fd5b810190808035906020019092919080359060200190929190803590602001906401000000008111156106cb57600080fd5b8201836020820111156106dd57600080fd5b803590602001918460208302840111640100000000831117156106ff57600080fd5b919080806020026020016040519081016040528093929190818152602001838360200280828437600081840152601f19601f8201169050808301925050505050505091929192908035906020019092919050505061222c565b005b34801561076657600080fd5b506107936004803603602081101561077d57600080fd5b81019080803590602001909291905050506123e4565b005b3480156107a157600080fd5b506107e2600480360360608110156107b857600080fd5b8101908080359060200190929190803590602001909291908035906020019092919050505061268f565b005b3480156107f057600080fd5b506108336004803603602081101561080757600080fd5b81019080803573ffffffffffffffffffffffffffffffffffffffff1690602001909291905050506128ed565b604051808060200180602001838103835285818151815260200191508051906020019080838360005b8381101561087757808201518184015260208101905061085c565b50505050905090810190601f1680156108a45780820380516001836020036101000a031916815260200191505b50838103825284818151815260200191508051906020019080838360005b838110156108dd5780820151818401526020810190506108c2565b50505050905090810190601f16801561090a5780820380516001836020036101000a031916815260200191505b5094505050505060405180910390f35b34801561092657600080fd5b506109696004803603602081101561093d57600080fd5b81019080803573ffffffffffffffffffffffffffffffffffffffff169060200190929190505050612a98565b005b34801561097757600080fd5b506109ba6004803603602081101561098e57600080fd5b81019080803573ffffffffffffffffffffffffffffffffffffffff169060200190929190505050612b20565b604051808215151515815260200191505060405180910390f35b6000600160009054906101000a900473ffffffffffffffffffffffffffffffffffffffff1673ffffffffffffffffffffffffffffffffffffffff166370a08231836040518263ffffffff167c0100000000000000000000000000000000000000000000000000000000028152600401808273ffffffffffffffffffffffffffffffffffffffff1673ffffffffffffffffffffffffffffffffffffffff16815260200191505060206040518083038186803b158015610a9157600080fd5b505afa158015610aa5573d6000803e3d6000fd5b505050506040513d6020811015610abb57600080fd5b81019080805190602001909291905050509050919050565b6000600460009054906101000a900473ffffffffffffffffffffffffffffffffffffffff16905090565b610b056116e5565b1515610b79576040517f08c379a00000000000000000000000000000000000000000000000000000000081526004018080602001828103825260208152602001807f4f776e61626c653a2063616c6c6572206973206e6f7420746865206f776e657281525060200191505060405180910390fd5b600160009054906101000a900473ffffffffffffffffffffffffffffffffffffffff1673ffffffffffffffffffffffffffffffffffffffff166394bf804d82610bc06116bc565b6040518363ffffffff167c0100000000000000000000000000000000000000000000000000000000028152600401808381526020018273ffffffffffffffffffffffffffffffffffffffff1673ffffffffffffffffffffffffffffffffffffffff16815260200192505050600060405180830381600087803b158015610c4557600080fd5b505af1158015610c59573d6000803e3d6000fd5b5050505050565b33600460009054906101000a900473ffffffffffffffffffffffffffffffffffffffff1673ffffffffffffffffffffffffffffffffffffffff1663f3dc7c3e826040518263ffffffff167c0100000000000000000000000000000000000000000000000000000000028152600401808273ffffffffffffffffffffffffffffffffffffffff1673ffffffffffffffffffffffffffffffffffffffff16815260200191505060206040518083038186803b158015610d1c57600080fd5b505afa158015610d30573d6000803e3d6000fd5b505050506040513d6020811015610d4657600080fd5b81019080805190602001909291905050501515610dcb576040517f08c379a00000000000000000000000000000000000000000000000000000000081526004018080602001828103825260148152602001807f4c6120656d7072657361206e6f2065786973746500000000000000000000000081525060200191505060405180910390fd5b82600260009054906101000a900473ffffffffffffffffffffffffffffffffffffffff1673ffffffffffffffffffffffffffffffffffffffff1663e2d51a06826040518263ffffffff167c01000000000000000000000000000000000000000000000000000000000281526004018082815260200191505060206040518083038186803b158015610e5b57600080fd5b505afa158015610e6f573d6000803e3d6000fd5b505050506040513d6020811015610e8557600080fd5b81019080805190602001909291905050501515610f0a576040517f08c379a00000000000000000000000000000000000000000000000000000000081526004018080602001828103825260118152602001807f456c2064726f6e206e6f2065786973746500000000000000000000000000000081525060200191505060405180910390fd5b82600360009054906101000a900473ffffffffffffffffffffffffffffffffffffffff1673ffffffffffffffffffffffffffffffffffffffff166351480674826040518263ffffffff167c01000000000000000000000000000000000000000000000000000000000281526004018082815260200191505060206040518083038186803b158015610f9a57600080fd5b505afa158015610fae573d6000803e3d6000fd5b505050506040513d6020811015610fc457600080fd5b81019080805190602001909291905050501515611049576040517f08c379a00000000000000000000000000000000000000000000000000000000081526004018080602001828103825260148152602001807f4c612070617263656c61206e6f2065786973746500000000000000000000000081525060200191505060405180910390fd5b60056000868152602001908152602001600020600085815260200190815260200160002060009054906101000a900460ff1615151561113c576040517f08c379a00000000000000000000000000000000000000000000000000000000081526004018080602001828103825260498152602001807f456c2064726f6e2073656c656363696f6e61646f20796120686162c3ad61207381526020017f69646f20636f6e7472617461646f20706172612066756d69676172206469636881526020017f612070617263656c61000000000000000000000000000000000000000000000081525060600191505060405180910390fd5b6000600360009054906101000a900473ffffffffffffffffffffffffffffffffffffffff1673ffffffffffffffffffffffffffffffffffffffff1663f30c057a866040518263ffffffff167c01000000000000000000000000000000000000000000000000000000000281526004018082815260200191505060a06040518083038186803b1580156111cd57600080fd5b505afa1580156111e1573d6000803e3d6000fd5b505050506040513d60a08110156111f757600080fd5b8101908080519060200190929190805190602001909291908051906020019092919080519060200190929190805190602001909291905050505050509150503373ffffffffffffffffffffffffffffffffffffffff168173ffffffffffffffffffffffffffffffffffffffff161415156112ff576040517f08c379a00000000000000000000000000000000000000000000000000000000081526004018080602001828103825260288152602001807f456c207573756172696f206e6f20657320656c20647565c3b16f206465206c6181526020017f2070617263656c6100000000000000000000000000000000000000000000000081525060400191505060405180910390fd5b600160056000888152602001908152602001600020600087815260200190815260200160002060006101000a81548160ff0219169083151502179055507f343249d5ec6e0548e40666c58ea57737477aa9c456061ec61b67e23b35efda478686604051808381526020018281526020019250505060405180910390a1505050505050565b6000600160009054906101000a900473ffffffffffffffffffffffffffffffffffffffff16905090565b60008060008060606000600260009054906101000a900473ffffffffffffffffffffffffffffffffffffffff1673ffffffffffffffffffffffffffffffffffffffff16635a3d1a18886040518263ffffffff167c01000000000000000000000000000000000000000000000000000000000281526004018082815260200191505060006040518083038186803b15801561144657600080fd5b505afa15801561145a573d6000803e3d6000fd5b505050506040513d6000823e3d601f19601f8201168201806040525060c081101561148457600080fd5b810190808051906020019092919080519060200190929190805190602001909291908051906020019092919080516401000000008111156114c457600080fd5b828101905060208101848111156114da57600080fd5b81518560208202830111640100000000821117156114f757600080fd5b505092919060200180519060200190929190505050809650819750829850839950849a50859b5050505050505091939550919395565b6115356116e5565b15156115a9576040517f08c379a00000000000000000000000000000000000000000000000000000000081526004018080602001828103825260208152602001807f4f776e61626c653a2063616c6c6572206973206e6f7420746865206f776e657281525060200191505060405180910390fd5b600073ffffffffffffffffffffffffffffffffffffffff166000809054906101000a900473ffffffffffffffffffffffffffffffffffffffff1673ffffffffffffffffffffffffffffffffffffffff167f8be0079c531659141344cd1fd0a4f28419497f9722a3daafe3b4186f6b6457e060405160405180910390a360008060006101000a81548173ffffffffffffffffffffffffffffffffffffffff021916908373ffffffffffffffffffffffffffffffffffffffff160217905550565b6000600360009054906101000a900473ffffffffffffffffffffffffffffffffffffffff16905090565b6000600260009054906101000a900473ffffffffffffffffffffffffffffffffffffffff16905090565b60008060009054906101000a900473ffffffffffffffffffffffffffffffffffffffff16905090565b60008060009054906101000a900473ffffffffffffffffffffffffffffffffffffffff1673ffffffffffffffffffffffffffffffffffffffff163373ffffffffffffffffffffffffffffffffffffffff1614905090565b600460009054906101000a900473ffffffffffffffffffffffffffffffffffffffff1673ffffffffffffffffffffffffffffffffffffffff1663bdec58f63385856040518463ffffffff167c0100000000000000000000000000000000000000000000000000000000028152600401808473ffffffffffffffffffffffffffffffffffffffff1673ffffffffffffffffffffffffffffffffffffffff1681526020018060200180602001838103835285818151815260200191508051906020019080838360005b8381101561181e578082015181840152602081019050611803565b50505050905090810190601f16801561184b5780820380516001836020036101000a031916815260200191505b50838103825284818151815260200191508051906020019080838360005b83811015611884578082015181840152602081019050611869565b50505050905090810190601f1680156118b15780820380516001836020036101000a031916815260200191505b5095505050505050600060405180830381600087803b1580156118d357600080fd5b505af11580156118e7573d6000803e3d6000fd5b50505050600160009054906101000a900473ffffffffffffffffffffffffffffffffffffffff1673ffffffffffffffffffffffffffffffffffffffff166323b872dd6119316116bc565b33846040518463ffffffff167c0100000000000000000000000000000000000000000000000000000000028152600401808473ffffffffffffffffffffffffffffffffffffffff1673ffffffffffffffffffffffffffffffffffffffff1681526020018373ffffffffffffffffffffffffffffffffffffffff1673ffffffffffffffffffffffffffffffffffffffff1681526020018281526020019350505050602060405180830381600087803b1580156119eb57600080fd5b505af11580156119ff573d6000803e3d6000fd5b505050506040513d6020811015611a1557600080fd5b810190808051906020019092919050505050505050565b611a346116e5565b1515611aa8576040517f08c379a00000000000000000000000000000000000000000000000000000000081526004018080602001828103825260208152602001807f4f776e61626c653a2063616c6c6572206973206e6f7420746865206f776e657281525060200191505060405180910390fd5b81600260009054906101000a900473ffffffffffffffffffffffffffffffffffffffff1673ffffffffffffffffffffffffffffffffffffffff1663e2d51a06826040518263ffffffff167c01000000000000000000000000000000000000000000000000000000000281526004018082815260200191505060206040518083038186803b158015611b3857600080fd5b505afa158015611b4c573d6000803e3d6000fd5b505050506040513d6020811015611b6257600080fd5b81019080805190602001909291905050501515611be7576040517f08c379a00000000000000000000000000000000000000000000000000000000081526004018080602001828103825260118152602001807f456c2064726f6e206e6f2065786973746500000000000000000000000000000081525060200191505060405180910390fd5b81600360009054906101000a900473ffffffffffffffffffffffffffffffffffffffff1673ffffffffffffffffffffffffffffffffffffffff166351480674826040518263ffffffff167c01000000000000000000000000000000000000000000000000000000000281526004018082815260200191505060206040518083038186803b158015611c7757600080fd5b505afa158015611c8b573d6000803e3d6000fd5b505050506040513d6020811015611ca157600080fd5b81019080805190602001909291905050501515611d26576040517f08c379a00000000000000000000000000000000000000000000000000000000081526004018080602001828103825260148152602001807f4c612070617263656c61206e6f2065786973746500000000000000000000000081525060200191505060405180910390fd5b60056000858152602001908152602001600020600084815260200190815260200160002060009054906101000a900460ff161515611e18576040517f08c379a00000000000000000000000000000000000000000000000000000000081526004018080602001828103825260498152602001807f456c2064726f6e2073656c656363696f6e61646f206e6f20686162c3ad61207381526020017f69646f20636f6e7472617461646f20706172612066756d69676172206469636881526020017f612070617263656c61000000000000000000000000000000000000000000000081525060600191505060405180910390fd5b600060056000868152602001908152602001600020600085815260200190815260200160002060006101000a81548160ff0219169083151502179055506000600360009054906101000a900473ffffffffffffffffffffffffffffffffffffffff1673ffffffffffffffffffffffffffffffffffffffff1663f30c057a856040518263ffffffff167c01000000000000000000000000000000000000000000000000000000000281526004018082815260200191505060a06040518083038186803b158015611ee657600080fd5b505afa158015611efa573d6000803e3d6000fd5b505050506040513d60a0811015611f1057600080fd5b810190808051906020019092919080519060200190929190805190602001909291908051906020019092919080519060200190929190505050505050915050600080600260009054906101000a900473ffffffffffffffffffffffffffffffffffffffff1673ffffffffffffffffffffffffffffffffffffffff16635a3d1a18886040518263ffffffff167c01000000000000000000000000000000000000000000000000000000000281526004018082815260200191505060006040518083038186803b158015611fe157600080fd5b505afa158015611ff5573d6000803e3d6000fd5b505050506040513d6000823e3d601f19601f8201168201806040525060c081101561201f57600080fd5b8101908080519060200190929190805190602001909291908051906020019092919080519060200190929190805164010000000081111561205f57600080fd5b8281019050602081018481111561207557600080fd5b815185602082028301116401000000008211171561209257600080fd5b5050929190602001805190602001909291905050509550505050925050600160009054906101000a900473ffffffffffffffffffffffffffffffffffffffff1673ffffffffffffffffffffffffffffffffffffffff166323b872dd8484846040518463ffffffff167c0100000000000000000000000000000000000000000000000000000000028152600401808473ffffffffffffffffffffffffffffffffffffffff1673ffffffffffffffffffffffffffffffffffffffff1681526020018373ffffffffffffffffffffffffffffffffffffffff1673ffffffffffffffffffffffffffffffffffffffff1681526020018281526020019350505050602060405180830381600087803b1580156121a857600080fd5b505af11580156121bc573d6000803e3d6000fd5b505050506040513d60208110156121d257600080fd5b8101908080519060200190929190505050507faafbb298a41e43e9556ebb995ca8d9a86d52e5ace02be90a9b4cad260cd096688688604051808381526020018281526020019250505060405180910390a150505050505050565b6122346116e5565b15156122a8576040517f08c379a00000000000000000000000000000000000000000000000000000000081526004018080602001828103825260208152602001807f4f776e61626c653a2063616c6c6572206973206e6f7420746865206f776e657281525060200191505060405180910390fd5b600260009054906101000a900473ffffffffffffffffffffffffffffffffffffffff1673ffffffffffffffffffffffffffffffffffffffff16639f78f56a33868686866040518663ffffffff167c0100000000000000000000000000000000000000000000000000000000028152600401808673ffffffffffffffffffffffffffffffffffffffff1673ffffffffffffffffffffffffffffffffffffffff16815260200185815260200184815260200180602001838152602001828103825284818151815260200191508051906020019060200280838360005b8381101561239d578082015181840152602081019050612382565b505050509050019650505050505050600060405180830381600087803b1580156123c657600080fd5b505af11580156123da573d6000803e3d6000fd5b5050505050505050565b33600460009054906101000a900473ffffffffffffffffffffffffffffffffffffffff1673ffffffffffffffffffffffffffffffffffffffff1663f3dc7c3e826040518263ffffffff167c0100000000000000000000000000000000000000000000000000000000028152600401808273ffffffffffffffffffffffffffffffffffffffff1673ffffffffffffffffffffffffffffffffffffffff16815260200191505060206040518083038186803b1580156124a057600080fd5b505afa1580156124b4573d6000803e3d6000fd5b505050506040513d60208110156124ca57600080fd5b8101908080519060200190929190505050151561254f576040517f08c379a00000000000000000000000000000000000000000000000000000000081526004018080602001828103825260148152602001807f4c6120656d7072657361206e6f2065786973746500000000000000000000000081525060200191505060405180910390fd5b600160009054906101000a900473ffffffffffffffffffffffffffffffffffffffff1673ffffffffffffffffffffffffffffffffffffffff166323b872dd6125956116bc565b33856040518463ffffffff167c0100000000000000000000000000000000000000000000000000000000028152600401808473ffffffffffffffffffffffffffffffffffffffff1673ffffffffffffffffffffffffffffffffffffffff1681526020018373ffffffffffffffffffffffffffffffffffffffff1673ffffffffffffffffffffffffffffffffffffffff1681526020018281526020019350505050602060405180830381600087803b15801561264f57600080fd5b505af1158015612663573d6000803e3d6000fd5b505050506040513d602081101561267957600080fd5b8101908080519060200190929190505050505050565b33600460009054906101000a900473ffffffffffffffffffffffffffffffffffffffff1673ffffffffffffffffffffffffffffffffffffffff1663f3dc7c3e826040518263ffffffff167c0100000000000000000000000000000000000000000000000000000000028152600401808273ffffffffffffffffffffffffffffffffffffffff1673ffffffffffffffffffffffffffffffffffffffff16815260200191505060206040518083038186803b15801561274b57600080fd5b505afa15801561275f573d6000803e3d6000fd5b505050506040513d602081101561277557600080fd5b810190808051906020019092919050505015156127fa576040517f08c379a00000000000000000000000000000000000000000000000000000000081526004018080602001828103825260148152602001807f4c6120656d7072657361206e6f2065786973746500000000000000000000000081525060200191505060405180910390fd5b600360009054906101000a900473ffffffffffffffffffffffffffffffffffffffff1673ffffffffffffffffffffffffffffffffffffffff1663a647e8ec338686866040518563ffffffff167c0100000000000000000000000000000000000000000000000000000000028152600401808573ffffffffffffffffffffffffffffffffffffffff1673ffffffffffffffffffffffffffffffffffffffff168152602001848152602001838152602001828152602001945050505050600060405180830381600087803b1580156128cf57600080fd5b505af11580156128e3573d6000803e3d6000fd5b5050505050505050565b606080600460009054906101000a900473ffffffffffffffffffffffffffffffffffffffff1673ffffffffffffffffffffffffffffffffffffffff1663df6617ac846040518263ffffffff167c0100000000000000000000000000000000000000000000000000000000028152600401808273ffffffffffffffffffffffffffffffffffffffff1673ffffffffffffffffffffffffffffffffffffffff16815260200191505060006040518083038186803b1580156129ab57600080fd5b505afa1580156129bf573d6000803e3d6000fd5b505050506040513d6000823e3d601f19601f8201168201806040525060408110156129e957600080fd5b810190808051640100000000811115612a0157600080fd5b82810190506020810184811115612a1757600080fd5b8151856001820283011164010000000082111715612a3457600080fd5b50509291906020018051640100000000811115612a5057600080fd5b82810190506020810184811115612a6657600080fd5b8151856001820283011164010000000082111715612a8357600080fd5b50509291905050508092508193505050915091565b612aa06116e5565b1515612b14576040517f08c379a00000000000000000000000000000000000000000000000000000000081526004018080602001828103825260208152602001807f4f776e61626c653a2063616c6c6572206973206e6f7420746865206f776e657281525060200191505060405180910390fd5b612b1d81612c1f565b50565b6000600460009054906101000a900473ffffffffffffffffffffffffffffffffffffffff1673ffffffffffffffffffffffffffffffffffffffff1663f3dc7c3e836040518263ffffffff167c0100000000000000000000000000000000000000000000000000000000028152600401808273ffffffffffffffffffffffffffffffffffffffff1673ffffffffffffffffffffffffffffffffffffffff16815260200191505060206040518083038186803b158015612bdd57600080fd5b505afa158015612bf1573d6000803e3d6000fd5b505050506040513d6020811015612c0757600080fd5b81019080805190602001909291905050509050919050565b600073ffffffffffffffffffffffffffffffffffffffff168173ffffffffffffffffffffffffffffffffffffffff1614151515612cea576040517f08c379a00000000000000000000000000000000000000000000000000000000081526004018080602001828103825260268152602001807f4f776e61626c653a206e6577206f776e657220697320746865207a65726f206181526020017f646472657373000000000000000000000000000000000000000000000000000081525060400191505060405180910390fd5b8073ffffffffffffffffffffffffffffffffffffffff166000809054906101000a900473ffffffffffffffffffffffffffffffffffffffff1673ffffffffffffffffffffffffffffffffffffffff167f8be0079c531659141344cd1fd0a4f28419497f9722a3daafe3b4186f6b6457e060405160405180910390a3806000806101000a81548173ffffffffffffffffffffffffffffffffffffffff021916908373ffffffffffffffffffffffffffffffffffffffff1602179055505056fea165627a7a7230582027f46364ecb7069074d27ea0def2898e6f83237185373dff8997197339207dce0029",
  "source": "pragma solidity ^0.5.0;\r\n\r\nimport \"./Droken.sol\";\r\nimport \"./DronesERC721.sol\";\r\nimport \"./ParcelasERC721.sol\";\r\nimport \"./Empresas.sol\";\r\n\r\nimport \"@openzeppelin/contracts/ownership/Ownable.sol\";\r\n\r\ncontract DronChain is Ownable {\r\n    Droken private drokenContract;\r\n    DronesERC721 private dronesContract;\r\n    ParcelasERC721 private parcelasContract;\r\n    Empresas private empresasContract;\r\n\r\n    mapping(uint256 => mapping(uint256 => bool)) private dronesContratados;\r\n\r\n    event DronContratado(uint256 dronId, uint256 parcelaId);\r\n    event ParcelaFumigada(uint256 parcelaId, uint256 dronId);\r\n\r\n    /**@dev Crea un nuevo contrato DronChain\r\n     * @param drokens Cuenta del contrato Droken asociado.\r\n     * @param drones Cuenta del contrato DronesERC721 asociado.\r\n     * @param parcelas Cuenta del contrato ParcelasERC721 asociado.\r\n     * @param empresas Cuenta del contrato Empresas asociado.\r\n     */\r\n    constructor(\r\n        address drokens,\r\n        address drones,\r\n        address parcelas,\r\n        address empresas\r\n    ) public {\r\n        drokenContract = Droken(drokens);\r\n        dronesContract = DronesERC721(drones);\r\n        parcelasContract = ParcelasERC721(parcelas);\r\n        empresasContract = Empresas(empresas);\r\n    }\r\n\r\n    /**\r\n     * @dev Se lanza si el dron no esta registrado\r\n     */\r\n    modifier dronValido(uint256 dronId) {\r\n        require(dronesContract.isDron(dronId), \"El dron no existe\");\r\n        _;\r\n    }\r\n\r\n    /**\r\n     * @dev Se lanza si la parcela no esta registrada\r\n     */\r\n    modifier parcelaValida(uint256 parcelaId) {\r\n        require(parcelasContract.isParcela(parcelaId), \"La parcela no existe\");\r\n        _;\r\n    }\r\n\r\n    /**\r\n     * @dev Se lanza si la empresa no esta registrada\r\n     */\r\n    modifier empresaValida(address empresa) {\r\n        require(empresasContract.isEmpresa(empresa), \"La empresa no existe\");\r\n        _;\r\n    }\r\n\r\n    /**@dev Devuelve la cuenta del contrato Droken asociado.\r\n     * @return Cuenta del contrato Droken asociado.\r\n     */\r\n    function getDrokenContract() public view returns (address) {\r\n        return address(drokenContract);\r\n    }\r\n\r\n    /**@dev Devuelve la cuenta del contrato DronesERC721 asociado.\r\n     * @return Cuenta del contrato DronesERC721 asociado.\r\n     */\r\n    function getDronesContract() public view returns (address) {\r\n        return address(dronesContract);\r\n    }\r\n\r\n    /**@dev Devuelve la cuenta del contrato ParcelasERC721 asociado.\r\n     * @return Cuenta del contrato ParcelasERC721 asociado.\r\n     */\r\n    function getParcelasContract() public view returns (address) {\r\n        return address(parcelasContract);\r\n    }\r\n\r\n    /**@dev Devuelve la cuenta del contrato Empresas asociado.\r\n     * @return Cuenta del contrato Empresas asociado.\r\n     */\r\n    function getEmpresasContract() public view returns (address) {\r\n        return address(empresasContract);\r\n    }\r\n\r\n    /**@dev Registra una nuevo dron.\r\n     * @param alturaVueloMinima Altura de vuelo minima del dron.\r\n     * @param alturaVueloMaxima Altura de vuelo maxima del dron.\r\n     * @param pesticidas Pesticidas que maneja el dron.\r\n     * @param coste Coste de contratacion del dron.\r\n     */\r\n    function registrarDron(\r\n        uint256 alturaVueloMinima,\r\n        uint256 alturaVueloMaxima,\r\n        uint256[] memory pesticidas,\r\n        uint256 coste\r\n    ) public onlyOwner {\r\n        dronesContract.mint(\r\n            msg.sender,\r\n            alturaVueloMinima,\r\n            alturaVueloMaxima,\r\n            pesticidas,\r\n            coste\r\n        );\r\n    }\r\n\r\n    /**@dev Devuelve los datos del registro de un dron.\r\n     * @param dronId Identificador del dron.\r\n     * @return id Identificador del dron.\r\n     * @return empresa Cuenta de la empresa propietaria del dron.\r\n     * @return alturaVueloMinima Altura de vuelo minima del dron.\r\n     * @return alturaVueloMaxima Altura de vuelo maxima del dron.\r\n     * @return pesticidas Pesticidas que maneja el dron.\r\n     * @return coste Coste de contratacion del dron.\r\n     */\r\n    function getDron(uint256 dronId) public view returns (\r\n            uint256 id,\r\n            address empresa,\r\n            uint256 alturaVueloMinima,\r\n            uint256 alturaVueloMaxima,\r\n            uint256[] memory pesticidas,\r\n            uint256 coste\r\n        ) {\r\n        (\r\n            id,\r\n            empresa,\r\n            alturaVueloMinima,\r\n            alturaVueloMaxima,\r\n            pesticidas,\r\n            coste\r\n        ) = dronesContract.getDron(dronId);\r\n    }\r\n\r\n    /**@dev Registra una nueva parcela.\r\n     * @param alturaVueloMinima Altura de vuelo minima de la parcela.\r\n     * @param alturaVueloMaxima Altura de vuelo maxima de la parcela.\r\n     * @param pesticida Pesticida requerido por la parcela.\r\n     */\r\n    function registrarParcela(\r\n        uint256 alturaVueloMinima,\r\n        uint256 alturaVueloMaxima,\r\n        uint256 pesticida\r\n    ) public empresaValida(msg.sender) {\r\n        parcelasContract.mint(\r\n            msg.sender,\r\n            alturaVueloMinima,\r\n            alturaVueloMaxima,\r\n            pesticida\r\n        );\r\n    }\r\n\r\n    /**@dev Registra una nueva empresa.\r\n     * @param nombre Nombre de la empresa.\r\n     * @param cif CIF de la empresa.\r\n     * @param cantidadTokens Cantidad de tokens iniciales a transferir a la empresa.\r\n     */\r\n    function registrarEmpresa(\r\n        string memory nombre,\r\n        string memory cif,\r\n        uint256 cantidadTokens\r\n    ) public {\r\n        empresasContract.registrarEmpresa(msg.sender, nombre, cif);\r\n        drokenContract.transferFrom(owner(), msg.sender, cantidadTokens);\r\n    }\r\n\r\n    /**@dev Devuelve los datos del registro de la empresa.\r\n     * @param _cuenta Cuenta de la empresa.\r\n     * @return nombre Nombre de laempresa.\r\n     * @return cif CIF de la empresa.\r\n     */\r\n    function getDatosEmpresa(address _cuenta) public view\r\n        returns (string memory nombre, string memory cif) {\r\n        (nombre, cif) = empresasContract.getDatosEmpresa(_cuenta);\r\n    }\r\n\r\n    /**@dev Devuelve si la empresa esta registrada.\r\n     * @param _cuenta Cuenta de la empresa.\r\n     * @return Booleano indicando si la empresa esta registrada.\r\n     */\r\n    function isEmpresa(address _cuenta) public view returns (bool) {\r\n        return empresasContract.isEmpresa(_cuenta);\r\n    }\r\n\r\n    /**@dev Devuelve el saldo en drokens de una cuenta.\r\n     * @param _cuenta Cuenta cuyo saldo sa va a consultar.\r\n     * @return Cantidad de drokens en poder de esa cuenta.\r\n     */\r\n    function getDrokens(address _cuenta) public view returns (uint256) {\r\n        return drokenContract.balanceOf(_cuenta);\r\n    }\r\n\r\n    /**@dev Contrata un dron para fumigar una parcela.\r\n     * @param dronId Identificador del dron.\r\n     * @param parcelaId Identificador de la parcela.\r\n     */\r\n    function contratarDron(uint256 dronId, uint256 parcelaId)\r\n        public\r\n        empresaValida(msg.sender)\r\n        dronValido(dronId)\r\n        parcelaValida(parcelaId)\r\n    {\r\n        require(\r\n            !dronesContratados[dronId][parcelaId],\r\n            \"El dron seleccionado ya haba sido contratado para fumigar dicha parcela\"\r\n        );\r\n        (, address empresaParcela, , , ) = parcelasContract.getParcela(parcelaId);\r\n        require(empresaParcela == msg.sender,\"El usuario no es el dueo de la parcela\");\r\n\r\n        dronesContratados[dronId][parcelaId] = true;\r\n\r\n        emit DronContratado(dronId, parcelaId);\r\n    }\r\n\r\n    /**@dev Asigna un dron a la fumigacion de una parcela para la que estaba contratado.\r\n     * @param dronId Identificador del dron.\r\n     * @param parcelaId Identificador de la parcela.\r\n     */\r\n    function asignarDron(uint256 dronId, uint256 parcelaId)\r\n        public\r\n        onlyOwner\r\n        dronValido(dronId)\r\n        parcelaValida(parcelaId)\r\n    {\r\n        require(\r\n            dronesContratados[dronId][parcelaId],\r\n            \"El dron seleccionado no haba sido contratado para fumigar dicha parcela\"\r\n        );\r\n\r\n        dronesContratados[dronId][parcelaId] = false;\r\n\r\n        (, address empresaParcela, , , ) = parcelasContract.getParcela(parcelaId);\r\n        (, address empresaDron, , , , uint256 coste) = dronesContract.getDron(dronId);\r\n        drokenContract.transferFrom(empresaParcela, empresaDron, coste);\r\n\r\n        emit ParcelaFumigada(parcelaId, dronId);\r\n    }\r\n\r\n    /**@dev Agrega drokens a la cuenta solicitante.\r\n     * @param cantidadTokens Cantidad de drokens a transferir al socilitante.\r\n     */\r\n    function agregarDrokens(uint256 cantidadTokens) public empresaValida(msg.sender) {\r\n        drokenContract.transferFrom(owner(), msg.sender, cantidadTokens);\r\n    }\r\n\r\n    /**@dev Acua drokens.\r\n     * @param cantidadTokens Cantidad de drokens a acuar.\r\n     */\r\n    function mintDrokens(uint256 cantidadTokens) public onlyOwner {\r\n        drokenContract.mint(cantidadTokens, owner());\r\n    }\r\n}\r\n",
  "sourcePath": "/home/alastria/TFE_Dronchain/smart_contracts/contracts/DronChain.sol",
  "compiler": {
    "name": "solc",
    "version": "0.5.0+commit.1d4f565a.Emscripten.clang"
  },
  "schemaVersion": "3.0.9",
  "updatedAt": "2020-03-10T08:07:29.213Z",
  "devdoc": {
    "methods": {
      "agregarDrokens(uint256)": {
        "details": "Agrega drokens a la cuenta solicitante.\r",
        "params": {
          "cantidadTokens": "Cantidad de drokens a transferir al socilitante.\r"
        }
      },
      "asignarDron(uint256,uint256)": {
        "details": "Asigna un dron a la fumigacion de una parcela para la que estaba contratado.\r",
        "params": {
          "dronId": "Identificador del dron.\r",
          "parcelaId": "Identificador de la parcela.\r"
        }
      },
      "constructor": {
        "details": "Crea un nuevo contrato DronChain\r",
        "params": {
          "drokens": "Cuenta del contrato Droken asociado.\r",
          "drones": "Cuenta del contrato DronesERC721 asociado.\r",
          "empresas": "Cuenta del contrato Empresas asociado.\r",
          "parcelas": "Cuenta del contrato ParcelasERC721 asociado.\r"
        }
      },
      "contratarDron(uint256,uint256)": {
        "details": "Contrata un dron para fumigar una parcela.\r",
        "params": {
          "dronId": "Identificador del dron.\r",
          "parcelaId": "Identificador de la parcela.\r"
        }
      },
      "getDatosEmpresa(address)": {
        "details": "Devuelve los datos del registro de la empresa.\r",
        "params": {
          "_cuenta": "Cuenta de la empresa.\r"
        },
        "return": "nombre Nombre de laempresa.\rcif CIF de la empresa.\r"
      },
      "getDrokenContract()": {
        "details": "Devuelve la cuenta del contrato Droken asociado.\r",
        "return": "Cuenta del contrato Droken asociado.\r"
      },
      "getDrokens(address)": {
        "details": "Devuelve el saldo en drokens de una cuenta.\r",
        "params": {
          "_cuenta": "Cuenta cuyo saldo sa va a consultar.\r"
        },
        "return": "Cantidad de drokens en poder de esa cuenta.\r"
      },
      "getDron(uint256)": {
        "details": "Devuelve los datos del registro de un dron.\r",
        "params": {
          "dronId": "Identificador del dron.\r"
        },
        "return": "id Identificador del dron.\rempresa Cuenta de la empresa propietaria del dron.\ralturaVueloMinima Altura de vuelo minima del dron.\ralturaVueloMaxima Altura de vuelo maxima del dron.\rpesticidas Pesticidas que maneja el dron.\rcoste Coste de contratacion del dron.\r"
      },
      "getDronesContract()": {
        "details": "Devuelve la cuenta del contrato DronesERC721 asociado.\r",
        "return": "Cuenta del contrato DronesERC721 asociado.\r"
      },
      "getEmpresasContract()": {
        "details": "Devuelve la cuenta del contrato Empresas asociado.\r",
        "return": "Cuenta del contrato Empresas asociado.\r"
      },
      "getParcelasContract()": {
        "details": "Devuelve la cuenta del contrato ParcelasERC721 asociado.\r",
        "return": "Cuenta del contrato ParcelasERC721 asociado.\r"
      },
      "isEmpresa(address)": {
        "details": "Devuelve si la empresa esta registrada.\r",
        "params": {
          "_cuenta": "Cuenta de la empresa.\r"
        },
        "return": "Booleano indicando si la empresa esta registrada.\r"
      },
      "isOwner()": {
        "details": "Returns true if the caller is the current owner."
      },
      "mintDrokens(uint256)": {
        "details": "Acua drokens.\r",
        "params": {
          "cantidadTokens": "Cantidad de drokens a acuar.\r"
        }
      },
      "owner()": {
        "details": "Returns the address of the current owner."
      },
      "registrarDron(uint256,uint256,uint256[],uint256)": {
        "details": "Registra una nuevo dron.\r",
        "params": {
          "alturaVueloMaxima": "Altura de vuelo maxima del dron.\r",
          "alturaVueloMinima": "Altura de vuelo minima del dron.\r",
          "coste": "Coste de contratacion del dron.\r",
          "pesticidas": "Pesticidas que maneja el dron.\r"
        }
      },
      "registrarEmpresa(string,string,uint256)": {
        "details": "Registra una nueva empresa.\r",
        "params": {
          "cantidadTokens": "Cantidad de tokens iniciales a transferir a la empresa.\r",
          "cif": "CIF de la empresa.\r",
          "nombre": "Nombre de la empresa.\r"
        }
      },
      "registrarParcela(uint256,uint256,uint256)": {
        "details": "Registra una nueva parcela.\r",
        "params": {
          "alturaVueloMaxima": "Altura de vuelo maxima de la parcela.\r",
          "alturaVueloMinima": "Altura de vuelo minima de la parcela.\r",
          "pesticida": "Pesticida requerido por la parcela.\r"
        }
      },
      "renounceOwnership()": {
        "details": "Leaves the contract without owner. It will not be possible to call `onlyOwner` functions anymore. Can only be called by the current owner.     * > Note: Renouncing ownership will leave the contract without an owner, thereby removing any functionality that is only available to the owner."
      },
      "transferOwnership(address)": {
        "details": "Transfers ownership of the contract to a new account (`newOwner`). Can only be called by the current owner."
      }
    }
  },
  "userdoc": {
    "methods": {}
  }
}