{
  "contractName": "DronesERC721",
  "abi": [
    {
      "constant": true,
      "inputs": [
        {
          "name": "interfaceId",
          "type": "bytes4"
        }
      ],
      "name": "supportsInterface",
      "outputs": [
        {
          "name": "",
          "type": "bool"
        }
      ],
      "payable": false,
      "stateMutability": "view",
      "type": "function"
    },
    {
      "constant": true,
      "inputs": [
        {
          "name": "tokenId",
          "type": "uint256"
        }
      ],
      "name": "getApproved",
      "outputs": [
        {
          "name": "",
          "type": "address"
        }
      ],
      "payable": false,
      "stateMutability": "view",
      "type": "function"
    },
    {
      "constant": false,
      "inputs": [
        {
          "name": "to",
          "type": "address"
        },
        {
          "name": "tokenId",
          "type": "uint256"
        }
      ],
      "name": "approve",
      "outputs": [],
      "payable": false,
      "stateMutability": "nonpayable",
      "type": "function"
    },
    {
      "constant": false,
      "inputs": [
        {
          "name": "from",
          "type": "address"
        },
        {
          "name": "to",
          "type": "address"
        },
        {
          "name": "tokenId",
          "type": "uint256"
        }
      ],
      "name": "transferFrom",
      "outputs": [],
      "payable": false,
      "stateMutability": "nonpayable",
      "type": "function"
    },
    {
      "constant": false,
      "inputs": [
        {
          "name": "from",
          "type": "address"
        },
        {
          "name": "to",
          "type": "address"
        },
        {
          "name": "tokenId",
          "type": "uint256"
        }
      ],
      "name": "safeTransferFrom",
      "outputs": [],
      "payable": false,
      "stateMutability": "nonpayable",
      "type": "function"
    },
    {
      "constant": true,
      "inputs": [
        {
          "name": "tokenId",
          "type": "uint256"
        }
      ],
      "name": "ownerOf",
      "outputs": [
        {
          "name": "",
          "type": "address"
        }
      ],
      "payable": false,
      "stateMutability": "view",
      "type": "function"
    },
    {
      "constant": true,
      "inputs": [
        {
          "name": "owner",
          "type": "address"
        }
      ],
      "name": "balanceOf",
      "outputs": [
        {
          "name": "",
          "type": "uint256"
        }
      ],
      "payable": false,
      "stateMutability": "view",
      "type": "function"
    },
    {
      "constant": false,
      "inputs": [],
      "name": "renounceOwnership",
      "outputs": [],
      "payable": false,
      "stateMutability": "nonpayable",
      "type": "function"
    },
    {
      "constant": true,
      "inputs": [],
      "name": "owner",
      "outputs": [
        {
          "name": "",
          "type": "address"
        }
      ],
      "payable": false,
      "stateMutability": "view",
      "type": "function"
    },
    {
      "constant": true,
      "inputs": [],
      "name": "isOwner",
      "outputs": [
        {
          "name": "",
          "type": "bool"
        }
      ],
      "payable": false,
      "stateMutability": "view",
      "type": "function"
    },
    {
      "constant": false,
      "inputs": [
        {
          "name": "to",
          "type": "address"
        },
        {
          "name": "approved",
          "type": "bool"
        }
      ],
      "name": "setApprovalForAll",
      "outputs": [],
      "payable": false,
      "stateMutability": "nonpayable",
      "type": "function"
    },
    {
      "constant": false,
      "inputs": [
        {
          "name": "from",
          "type": "address"
        },
        {
          "name": "to",
          "type": "address"
        },
        {
          "name": "tokenId",
          "type": "uint256"
        },
        {
          "name": "_data",
          "type": "bytes"
        }
      ],
      "name": "safeTransferFrom",
      "outputs": [],
      "payable": false,
      "stateMutability": "nonpayable",
      "type": "function"
    },
    {
      "constant": true,
      "inputs": [
        {
          "name": "owner",
          "type": "address"
        },
        {
          "name": "operator",
          "type": "address"
        }
      ],
      "name": "isApprovedForAll",
      "outputs": [
        {
          "name": "",
          "type": "bool"
        }
      ],
      "payable": false,
      "stateMutability": "view",
      "type": "function"
    },
    {
      "constant": false,
      "inputs": [
        {
          "name": "newOwner",
          "type": "address"
        }
      ],
      "name": "transferOwnership",
      "outputs": [],
      "payable": false,
      "stateMutability": "nonpayable",
      "type": "function"
    },
    {
      "anonymous": false,
      "inputs": [
        {
          "indexed": true,
          "name": "id",
          "type": "uint256"
        },
        {
          "indexed": true,
          "name": "empresa",
          "type": "address"
        },
        {
          "indexed": false,
          "name": "alturaVueloMinima",
          "type": "uint256"
        },
        {
          "indexed": false,
          "name": "alturaVueloMaxima",
          "type": "uint256"
        },
        {
          "indexed": false,
          "name": "pesticidas",
          "type": "uint256[]"
        },
        {
          "indexed": false,
          "name": "coste",
          "type": "uint256"
        }
      ],
      "name": "DronRegistrado",
      "type": "event"
    },
    {
      "anonymous": false,
      "inputs": [
        {
          "indexed": true,
          "name": "previousOwner",
          "type": "address"
        },
        {
          "indexed": true,
          "name": "newOwner",
          "type": "address"
        }
      ],
      "name": "OwnershipTransferred",
      "type": "event"
    },
    {
      "anonymous": false,
      "inputs": [
        {
          "indexed": true,
          "name": "from",
          "type": "address"
        },
        {
          "indexed": true,
          "name": "to",
          "type": "address"
        },
        {
          "indexed": true,
          "name": "tokenId",
          "type": "uint256"
        }
      ],
      "name": "Transfer",
      "type": "event"
    },
    {
      "anonymous": false,
      "inputs": [
        {
          "indexed": true,
          "name": "owner",
          "type": "address"
        },
        {
          "indexed": true,
          "name": "approved",
          "type": "address"
        },
        {
          "indexed": true,
          "name": "tokenId",
          "type": "uint256"
        }
      ],
      "name": "Approval",
      "type": "event"
    },
    {
      "anonymous": false,
      "inputs": [
        {
          "indexed": true,
          "name": "owner",
          "type": "address"
        },
        {
          "indexed": true,
          "name": "operator",
          "type": "address"
        },
        {
          "indexed": false,
          "name": "approved",
          "type": "bool"
        }
      ],
      "name": "ApprovalForAll",
      "type": "event"
    },
    {
      "constant": true,
      "inputs": [
        {
          "name": "dronId",
          "type": "uint256"
        }
      ],
      "name": "isDron",
      "outputs": [
        {
          "name": "",
          "type": "bool"
        }
      ],
      "payable": false,
      "stateMutability": "view",
      "type": "function"
    },
    {
      "constant": true,
      "inputs": [],
      "name": "numeroDrones",
      "outputs": [
        {
          "name": "",
          "type": "uint256"
        }
      ],
      "payable": false,
      "stateMutability": "view",
      "type": "function"
    },
    {
      "constant": true,
      "inputs": [
        {
          "name": "dronId",
          "type": "uint256"
        }
      ],
      "name": "getDron",
      "outputs": [
        {
          "name": "id",
          "type": "uint256"
        },
        {
          "name": "empresa",
          "type": "address"
        },
        {
          "name": "alturaVueloMinima",
          "type": "uint256"
        },
        {
          "name": "alturaVueloMaxima",
          "type": "uint256"
        },
        {
          "name": "pesticidas",
          "type": "uint256[]"
        },
        {
          "name": "coste",
          "type": "uint256"
        }
      ],
      "payable": false,
      "stateMutability": "view",
      "type": "function"
    },
    {
      "constant": false,
      "inputs": [
        {
          "name": "_empresa",
          "type": "address"
        },
        {
          "name": "_alturaVueloMinima",
          "type": "uint256"
        },
        {
          "name": "_alturaVueloMaxima",
          "type": "uint256"
        },
        {
          "name": "_pesticidas",
          "type": "uint256[]"
        },
        {
          "name": "_coste",
          "type": "uint256"
        }
      ],
      "name": "mint",
      "outputs": [],
      "payable": false,
      "stateMutability": "nonpayable",
      "type": "function"
    },
    {
      "constant": false,
      "inputs": [
        {
          "name": "dronId",
          "type": "uint256"
        },
        {
          "name": "to",
          "type": "address"
        }
      ],
      "name": "transferirDron",
      "outputs": [],
      "payable": false,
      "stateMutability": "nonpayable",
      "type": "function"
    },
    {
      "constant": false,
      "inputs": [
        {
          "name": "dronId",
          "type": "uint256"
        }
      ],
      "name": "burn",
      "outputs": [],
      "payable": false,
      "stateMutability": "nonpayable",
      "type": "function"
    }
  ],
  "bytecode": "0x60806040526000600655620000466301ffc9a77c01000000000000000000000000000000000000000000000000000000000262000147640100000000026401000000009004565b620000836380ac58cd7c01000000000000000000000000000000000000000000000000000000000262000147640100000000026401000000009004565b33600560006101000a81548173ffffffffffffffffffffffffffffffffffffffff021916908373ffffffffffffffffffffffffffffffffffffffff160217905550600560009054906101000a900473ffffffffffffffffffffffffffffffffffffffff1673ffffffffffffffffffffffffffffffffffffffff16600073ffffffffffffffffffffffffffffffffffffffff167f8be0079c531659141344cd1fd0a4f28419497f9722a3daafe3b4186f6b6457e060405160405180910390a36200026e565b63ffffffff7c010000000000000000000000000000000000000000000000000000000002817bffffffffffffffffffffffffffffffffffffffffffffffffffffffff19161415151562000202576040517f08c379a000000000000000000000000000000000000000000000000000000000815260040180806020018281038252601c8152602001807f4552433136353a20696e76616c696420696e746572666163652069640000000081525060200191505060405180910390fd5b6001600080837bffffffffffffffffffffffffffffffffffffffffffffffffffffffff19167bffffffffffffffffffffffffffffffffffffffffffffffffffffffff1916815260200190815260200160002060006101000a81548160ff02191690831515021790555050565b612cd3806200027e6000396000f3fe608060405260043610610112576000357c0100000000000000000000000000000000000000000000000000000000900463ffffffff16806301ffc9a714610117578063081812fc14610189578063095ea7b31461020457806323b872dd1461025f57806342842e0e146102da57806342966c68146103555780635a3d1a18146103905780636143415d1461046f5780636352211e146104ca57806370a0823114610545578063715018a6146105aa5780638da5cb5b146105c15780638f32d59b146106185780639f78f56a14610647578063a22cb4651461074a578063b88d4fde146107a7578063b90f695f146108b9578063e2d51a06146108e4578063e985e9c514610937578063f2fde38b146109c0575b600080fd5b34801561012357600080fd5b5061016f6004803603602081101561013a57600080fd5b8101908080357bffffffffffffffffffffffffffffffffffffffffffffffffffffffff19169060200190929190505050610a11565b604051808215151515815260200191505060405180910390f35b34801561019557600080fd5b506101c2600480360360208110156101ac57600080fd5b8101908080359060200190929190505050610a78565b604051808273ffffffffffffffffffffffffffffffffffffffff1673ffffffffffffffffffffffffffffffffffffffff16815260200191505060405180910390f35b34801561021057600080fd5b5061025d6004803603604081101561022757600080fd5b81019080803573ffffffffffffffffffffffffffffffffffffffff16906020019092919080359060200190929190505050610b58565b005b34801561026b57600080fd5b506102d86004803603606081101561028257600080fd5b81019080803573ffffffffffffffffffffffffffffffffffffffff169060200190929190803573ffffffffffffffffffffffffffffffffffffffff16906020019092919080359060200190929190505050610dbb565b005b3480156102e657600080fd5b50610353600480360360608110156102fd57600080fd5b81019080803573ffffffffffffffffffffffffffffffffffffffff169060200190929190803573ffffffffffffffffffffffffffffffffffffffff16906020019092919080359060200190929190505050610e6f565b005b34801561036157600080fd5b5061038e6004803603602081101561037857600080fd5b8101908080359060200190929190505050610e90565b005b34801561039c57600080fd5b506103c9600480360360208110156103b357600080fd5b8101908080359060200190929190505050610ffa565b604051808781526020018673ffffffffffffffffffffffffffffffffffffffff1673ffffffffffffffffffffffffffffffffffffffff16815260200185815260200184815260200180602001838152602001828103825284818151815260200191508051906020019060200280838360005b8381101561045657808201518184015260208101905061043b565b5050505090500197505050505050505060405180910390f35b34801561047b57600080fd5b506104c86004803603604081101561049257600080fd5b8101908080359060200190929190803573ffffffffffffffffffffffffffffffffffffffff1690602001909291905050506111a0565b005b3480156104d657600080fd5b50610503600480360360208110156104ed57600080fd5b81019080803590602001909291905050506113ec565b604051808273ffffffffffffffffffffffffffffffffffffffff1673ffffffffffffffffffffffffffffffffffffffff16815260200191505060405180910390f35b34801561055157600080fd5b506105946004803603602081101561056857600080fd5b81019080803573ffffffffffffffffffffffffffffffffffffffff1690602001909291905050506114f9565b6040518082815260200191505060405180910390f35b3480156105b657600080fd5b506105bf611613565b005b3480156105cd57600080fd5b506105d6611750565b604051808273ffffffffffffffffffffffffffffffffffffffff1673ffffffffffffffffffffffffffffffffffffffff16815260200191505060405180910390f35b34801561062457600080fd5b5061062d61177a565b604051808215151515815260200191505060405180910390f35b34801561065357600080fd5b50610748600480360360a081101561066a57600080fd5b81019080803573ffffffffffffffffffffffffffffffffffffffff1690602001909291908035906020019092919080359060200190929190803590602001906401000000008111156106bb57600080fd5b8201836020820111156106cd57600080fd5b803590602001918460208302840111640100000000831117156106ef57600080fd5b919080806020026020016040519081016040528093929190818152602001838360200280828437600081840152601f19601f820116905080830192505050505050509192919290803590602001909291905050506117d2565b005b34801561075657600080fd5b506107a56004803603604081101561076d57600080fd5b81019080803573ffffffffffffffffffffffffffffffffffffffff169060200190929190803515159060200190929190505050611abe565b005b3480156107b357600080fd5b506108b7600480360360808110156107ca57600080fd5b81019080803573ffffffffffffffffffffffffffffffffffffffff169060200190929190803573ffffffffffffffffffffffffffffffffffffffff169060200190929190803590602001909291908035906020019064010000000081111561083157600080fd5b82018360208201111561084357600080fd5b8035906020019184600183028401116401000000008311171561086557600080fd5b91908080601f016020809104026020016040519081016040528093929190818152602001838380828437600081840152601f19601f820116905080830192505050505050509192919290505050611c63565b005b3480156108c557600080fd5b506108ce611d1a565b6040518082815260200191505060405180910390f35b3480156108f057600080fd5b5061091d6004803603602081101561090757600080fd5b8101908080359060200190929190505050611d24565b604051808215151515815260200191505060405180910390f35b34801561094357600080fd5b506109a66004803603604081101561095a57600080fd5b81019080803573ffffffffffffffffffffffffffffffffffffffff169060200190929190803573ffffffffffffffffffffffffffffffffffffffff169060200190929190505050611d46565b604051808215151515815260200191505060405180910390f35b3480156109cc57600080fd5b50610a0f600480360360208110156109e357600080fd5b81019080803573ffffffffffffffffffffffffffffffffffffffff169060200190929190505050611dda565b005b6000806000837bffffffffffffffffffffffffffffffffffffffffffffffffffffffff19167bffffffffffffffffffffffffffffffffffffffffffffffffffffffff1916815260200190815260200160002060009054906101000a900460ff169050919050565b6000610a8382611e62565b1515610b1d576040517f08c379a000000000000000000000000000000000000000000000000000000000815260040180806020018281038252602c8152602001807f4552433732313a20617070726f76656420717565727920666f72206e6f6e657881526020017f697374656e7420746f6b656e000000000000000000000000000000000000000081525060400191505060405180910390fd5b6002600083815260200190815260200160002060009054906101000a900473ffffffffffffffffffffffffffffffffffffffff169050919050565b6000610b63826113ec565b90508073ffffffffffffffffffffffffffffffffffffffff168373ffffffffffffffffffffffffffffffffffffffff1614151515610c2f576040517f08c379a00000000000000000000000000000000000000000000000000000000081526004018080602001828103825260218152602001807f4552433732313a20617070726f76616c20746f2063757272656e74206f776e6581526020017f720000000000000000000000000000000000000000000000000000000000000081525060400191505060405180910390fd5b8073ffffffffffffffffffffffffffffffffffffffff163373ffffffffffffffffffffffffffffffffffffffff161480610c6f5750610c6e8133611d46565b5b1515610d09576040517f08c379a00000000000000000000000000000000000000000000000000000000081526004018080602001828103825260388152602001807f4552433732313a20617070726f76652063616c6c6572206973206e6f74206f7781526020017f6e6572206e6f7220617070726f76656420666f7220616c6c000000000000000081525060400191505060405180910390fd5b826002600084815260200190815260200160002060006101000a81548173ffffffffffffffffffffffffffffffffffffffff021916908373ffffffffffffffffffffffffffffffffffffffff160217905550818373ffffffffffffffffffffffffffffffffffffffff168273ffffffffffffffffffffffffffffffffffffffff167f8c5be1e5ebec7d5bd14f71427d1e84f3dd0314c0f7b2291e5b200ac8c7c3b92560405160405180910390a4505050565b610dc53382611ed4565b1515610e5f576040517f08c379a00000000000000000000000000000000000000000000000000000000081526004018080602001828103825260318152602001807f4552433732313a207472616e736665722063616c6c6572206973206e6f74206f81526020017f776e6572206e6f7220617070726f76656400000000000000000000000000000081525060400191505060405180910390fd5b610e6a83838361200d565b505050565b610e8b8383836020604051908101604052806000815250611c63565b505050565b610e9861177a565b1515610f0c576040517f08c379a00000000000000000000000000000000000000000000000000000000081526004018080602001828103825260208152602001807f4f776e61626c653a2063616c6c6572206973206e6f7420746865206f776e657281525060200191505060405180910390fd5b80806007600083815260200190815260200160002060000154141515610f9a576040517f08c379a000000000000000000000000000000000000000000000000000000000815260040180806020018281038252601c8152602001807f456c2064726f6e20736f6c6963697461646f206e6f206578697374650000000081525060200191505060405180910390fd5b610fda6007600084815260200190815260200160002060010160009054906101000a900473ffffffffffffffffffffffffffffffffffffffff16836122f2565b600060076000848152602001908152602001600020600001819055505050565b6000806000806060600086806007600083815260200190815260200160002060000154141515611092576040517f08c379a000000000000000000000000000000000000000000000000000000000815260040180806020018281038252601c8152602001807f456c2064726f6e20736f6c6963697461646f206e6f206578697374650000000081525060200191505060405180910390fd5b600760008981526020019081526020016000206000015496506007600089815260200190815260200160002060010160009054906101000a900473ffffffffffffffffffffffffffffffffffffffff16955060076000898152602001908152602001600020600201549450600760008981526020019081526020016000206003015493506007600089815260200190815260200160002060040180548060200260200160405190810160405280929190818152602001828054801561117657602002820191906000526020600020905b815481526020019060010190808311611162575b50505050509250600760008981526020019081526020016000206005015491505091939550919395565b6111a861177a565b151561121c576040517f08c379a00000000000000000000000000000000000000000000000000000000081526004018080602001828103825260208152602001807f4f776e61626c653a2063616c6c6572206973206e6f7420746865206f776e657281525060200191505060405180910390fd5b818060076000838152602001908152602001600020600001541415156112aa576040517f08c379a000000000000000000000000000000000000000000000000000000000815260040180806020018281038252601c8152602001807f456c2064726f6e20736f6c6963697461646f206e6f206578697374650000000081525060200191505060405180910390fd5b81600073ffffffffffffffffffffffffffffffffffffffff168173ffffffffffffffffffffffffffffffffffffffff1614151515611350576040517f08c379a00000000000000000000000000000000000000000000000000000000081526004018080602001828103825260168152602001807f4c61206375656e7461206e6f2065732076616c6964610000000000000000000081525060200191505060405180910390fd5b6113916007600086815260200190815260200160002060010160009054906101000a900473ffffffffffffffffffffffffffffffffffffffff168486610dbb565b826007600086815260200190815260200160002060010160006101000a81548173ffffffffffffffffffffffffffffffffffffffff021916908373ffffffffffffffffffffffffffffffffffffffff16021790555050505050565b6000806001600084815260200190815260200160002060009054906101000a900473ffffffffffffffffffffffffffffffffffffffff169050600073ffffffffffffffffffffffffffffffffffffffff168173ffffffffffffffffffffffffffffffffffffffff16141515156114f0576040517f08c379a00000000000000000000000000000000000000000000000000000000081526004018080602001828103825260298152602001807f4552433732313a206f776e657220717565727920666f72206e6f6e657869737481526020017f656e7420746f6b656e000000000000000000000000000000000000000000000081525060400191505060405180910390fd5b80915050919050565b60008073ffffffffffffffffffffffffffffffffffffffff168273ffffffffffffffffffffffffffffffffffffffff16141515156115c5576040517f08c379a000000000000000000000000000000000000000000000000000000000815260040180806020018281038252602a8152602001807f4552433732313a2062616c616e636520717565727920666f7220746865207a6581526020017f726f20616464726573730000000000000000000000000000000000000000000081525060400191505060405180910390fd5b61160c600360008473ffffffffffffffffffffffffffffffffffffffff1673ffffffffffffffffffffffffffffffffffffffff1681526020019081526020016000206124c6565b9050919050565b61161b61177a565b151561168f576040517f08c379a00000000000000000000000000000000000000000000000000000000081526004018080602001828103825260208152602001807f4f776e61626c653a2063616c6c6572206973206e6f7420746865206f776e657281525060200191505060405180910390fd5b600073ffffffffffffffffffffffffffffffffffffffff16600560009054906101000a900473ffffffffffffffffffffffffffffffffffffffff1673ffffffffffffffffffffffffffffffffffffffff167f8be0079c531659141344cd1fd0a4f28419497f9722a3daafe3b4186f6b6457e060405160405180910390a36000600560006101000a81548173ffffffffffffffffffffffffffffffffffffffff021916908373ffffffffffffffffffffffffffffffffffffffff160217905550565b6000600560009054906101000a900473ffffffffffffffffffffffffffffffffffffffff16905090565b6000600560009054906101000a900473ffffffffffffffffffffffffffffffffffffffff1673ffffffffffffffffffffffffffffffffffffffff163373ffffffffffffffffffffffffffffffffffffffff1614905090565b6117da61177a565b151561184e576040517f08c379a00000000000000000000000000000000000000000000000000000000081526004018080602001828103825260208152602001807f4f776e61626c653a2063616c6c6572206973206e6f7420746865206f776e657281525060200191505060405180910390fd5b84600073ffffffffffffffffffffffffffffffffffffffff168173ffffffffffffffffffffffffffffffffffffffff16141515156118f4576040517f08c379a00000000000000000000000000000000000000000000000000000000081526004018080602001828103825260168152602001807f4c61206375656e7461206e6f2065732076616c6964610000000000000000000081525060200191505060405180910390fd5b600660008154809291906001019190505550611912866006546124d4565b600654600760006006548152602001908152602001600020600001819055508560076000600654815260200190815260200160002060010160006101000a81548173ffffffffffffffffffffffffffffffffffffffff021916908373ffffffffffffffffffffffffffffffffffffffff160217905550846007600060065481526020019081526020016000206002018190555083600760006006548152602001908152602001600020600301819055508260076000600654815260200190815260200160002060040190805190602001906119ee929190612c35565b5081600760006006548152602001908152602001600020600501819055508573ffffffffffffffffffffffffffffffffffffffff166006547fd71aef220fbc3aadf529b351be13ce7ad78e4e31f75a2db88111b28f3db93d07878787876040518085815260200184815260200180602001838152602001828103825284818151815260200191508051906020019060200280838360005b83811015611aa0578082015181840152602081019050611a85565b505050509050019550505050505060405180910390a3505050505050565b3373ffffffffffffffffffffffffffffffffffffffff168273ffffffffffffffffffffffffffffffffffffffff1614151515611b62576040517f08c379a00000000000000000000000000000000000000000000000000000000081526004018080602001828103825260198152602001807f4552433732313a20617070726f766520746f2063616c6c65720000000000000081525060200191505060405180910390fd5b80600460003373ffffffffffffffffffffffffffffffffffffffff1673ffffffffffffffffffffffffffffffffffffffff16815260200190815260200160002060008473ffffffffffffffffffffffffffffffffffffffff1673ffffffffffffffffffffffffffffffffffffffff16815260200190815260200160002060006101000a81548160ff0219169083151502179055508173ffffffffffffffffffffffffffffffffffffffff163373ffffffffffffffffffffffffffffffffffffffff167f17307eab39ab6107e8899845ad3d59bd9653f200f220920489ca2b5937696c3183604051808215151515815260200191505060405180910390a35050565b611c6e848484610dbb565b611c7a848484846126f0565b1515611d14576040517f08c379a00000000000000000000000000000000000000000000000000000000081526004018080602001828103825260328152602001807f4552433732313a207472616e7366657220746f206e6f6e20455243373231526581526020017f63656976657220696d706c656d656e746572000000000000000000000000000081525060400191505060405180910390fd5b50505050565b6000600654905090565b6000816007600084815260200190815260200160002060000154149050919050565b6000600460008473ffffffffffffffffffffffffffffffffffffffff1673ffffffffffffffffffffffffffffffffffffffff16815260200190815260200160002060008373ffffffffffffffffffffffffffffffffffffffff1673ffffffffffffffffffffffffffffffffffffffff16815260200190815260200160002060009054906101000a900460ff16905092915050565b611de261177a565b1515611e56576040517f08c379a00000000000000000000000000000000000000000000000000000000081526004018080602001828103825260208152602001807f4f776e61626c653a2063616c6c6572206973206e6f7420746865206f776e657281525060200191505060405180910390fd5b611e5f81612913565b50565b6000806001600084815260200190815260200160002060009054906101000a900473ffffffffffffffffffffffffffffffffffffffff169050600073ffffffffffffffffffffffffffffffffffffffff168173ffffffffffffffffffffffffffffffffffffffff161415915050919050565b6000611edf82611e62565b1515611f79576040517f08c379a000000000000000000000000000000000000000000000000000000000815260040180806020018281038252602c8152602001807f4552433732313a206f70657261746f7220717565727920666f72206e6f6e657881526020017f697374656e7420746f6b656e000000000000000000000000000000000000000081525060400191505060405180910390fd5b6000611f84836113ec565b90508073ffffffffffffffffffffffffffffffffffffffff168473ffffffffffffffffffffffffffffffffffffffff161480611ff357508373ffffffffffffffffffffffffffffffffffffffff16611fdb84610a78565b73ffffffffffffffffffffffffffffffffffffffff16145b8061200457506120038185611d46565b5b91505092915050565b8273ffffffffffffffffffffffffffffffffffffffff1661202d826113ec565b73ffffffffffffffffffffffffffffffffffffffff161415156120de576040517f08c379a00000000000000000000000000000000000000000000000000000000081526004018080602001828103825260298152602001807f4552433732313a207472616e73666572206f6620746f6b656e2074686174206981526020017f73206e6f74206f776e000000000000000000000000000000000000000000000081525060400191505060405180910390fd5b600073ffffffffffffffffffffffffffffffffffffffff168273ffffffffffffffffffffffffffffffffffffffff16141515156121a9576040517f08c379a00000000000000000000000000000000000000000000000000000000081526004018080602001828103825260248152602001807f4552433732313a207472616e7366657220746f20746865207a65726f2061646481526020017f726573730000000000000000000000000000000000000000000000000000000081525060400191505060405180910390fd5b6121b281612a9e565b6121f9600360008573ffffffffffffffffffffffffffffffffffffffff1673ffffffffffffffffffffffffffffffffffffffff168152602001908152602001600020612b5e565b612240600360008473ffffffffffffffffffffffffffffffffffffffff1673ffffffffffffffffffffffffffffffffffffffff168152602001908152602001600020612b81565b816001600083815260200190815260200160002060006101000a81548173ffffffffffffffffffffffffffffffffffffffff021916908373ffffffffffffffffffffffffffffffffffffffff160217905550808273ffffffffffffffffffffffffffffffffffffffff168473ffffffffffffffffffffffffffffffffffffffff167fddf252ad1be2c89b69c2b068fc378daa952ba7f163c4a11628f55a4df523b3ef60405160405180910390a4505050565b8173ffffffffffffffffffffffffffffffffffffffff16612312826113ec565b73ffffffffffffffffffffffffffffffffffffffff161415156123c3576040517f08c379a00000000000000000000000000000000000000000000000000000000081526004018080602001828103825260258152602001807f4552433732313a206275726e206f6620746f6b656e2074686174206973206e6f81526020017f74206f776e00000000000000000000000000000000000000000000000000000081525060400191505060405180910390fd5b6123cc81612a9e565b612413600360008473ffffffffffffffffffffffffffffffffffffffff1673ffffffffffffffffffffffffffffffffffffffff168152602001908152602001600020612b5e565b60006001600083815260200190815260200160002060006101000a81548173ffffffffffffffffffffffffffffffffffffffff021916908373ffffffffffffffffffffffffffffffffffffffff16021790555080600073ffffffffffffffffffffffffffffffffffffffff168373ffffffffffffffffffffffffffffffffffffffff167fddf252ad1be2c89b69c2b068fc378daa952ba7f163c4a11628f55a4df523b3ef60405160405180910390a45050565b600081600001549050919050565b600073ffffffffffffffffffffffffffffffffffffffff168273ffffffffffffffffffffffffffffffffffffffff1614151515612579576040517f08c379a00000000000000000000000000000000000000000000000000000000081526004018080602001828103825260208152602001807f4552433732313a206d696e7420746f20746865207a65726f206164647265737381525060200191505060405180910390fd5b61258281611e62565b1515156125f7576040517f08c379a000000000000000000000000000000000000000000000000000000000815260040180806020018281038252601c8152602001807f4552433732313a20746f6b656e20616c7265616479206d696e7465640000000081525060200191505060405180910390fd5b816001600083815260200190815260200160002060006101000a81548173ffffffffffffffffffffffffffffffffffffffff021916908373ffffffffffffffffffffffffffffffffffffffff160217905550612690600360008473ffffffffffffffffffffffffffffffffffffffff1673ffffffffffffffffffffffffffffffffffffffff168152602001908152602001600020612b81565b808273ffffffffffffffffffffffffffffffffffffffff16600073ffffffffffffffffffffffffffffffffffffffff167fddf252ad1be2c89b69c2b068fc378daa952ba7f163c4a11628f55a4df523b3ef60405160405180910390a45050565b60006127118473ffffffffffffffffffffffffffffffffffffffff16612b97565b1515612720576001905061290b565b60008473ffffffffffffffffffffffffffffffffffffffff1663150b7a02338887876040518563ffffffff167c0100000000000000000000000000000000000000000000000000000000028152600401808573ffffffffffffffffffffffffffffffffffffffff1673ffffffffffffffffffffffffffffffffffffffff1681526020018473ffffffffffffffffffffffffffffffffffffffff1673ffffffffffffffffffffffffffffffffffffffff16815260200183815260200180602001828103825283818151815260200191508051906020019080838360005b838110156128175780820151818401526020810190506127fc565b50505050905090810190601f1680156128445780820380516001836020036101000a031916815260200191505b5095505050505050602060405180830381600087803b15801561286657600080fd5b505af115801561287a573d6000803e3d6000fd5b505050506040513d602081101561289057600080fd5b8101908080519060200190929190505050905063150b7a027c0100000000000000000000000000000000000000000000000000000000027bffffffffffffffffffffffffffffffffffffffffffffffffffffffff1916817bffffffffffffffffffffffffffffffffffffffffffffffffffffffff1916149150505b949350505050565b600073ffffffffffffffffffffffffffffffffffffffff168173ffffffffffffffffffffffffffffffffffffffff16141515156129de576040517f08c379a00000000000000000000000000000000000000000000000000000000081526004018080602001828103825260268152602001807f4f776e61626c653a206e6577206f776e657220697320746865207a65726f206181526020017f646472657373000000000000000000000000000000000000000000000000000081525060400191505060405180910390fd5b8073ffffffffffffffffffffffffffffffffffffffff16600560009054906101000a900473ffffffffffffffffffffffffffffffffffffffff1673ffffffffffffffffffffffffffffffffffffffff167f8be0079c531659141344cd1fd0a4f28419497f9722a3daafe3b4186f6b6457e060405160405180910390a380600560006101000a81548173ffffffffffffffffffffffffffffffffffffffff021916908373ffffffffffffffffffffffffffffffffffffffff16021790555050565b600073ffffffffffffffffffffffffffffffffffffffff166002600083815260200190815260200160002060009054906101000a900473ffffffffffffffffffffffffffffffffffffffff1673ffffffffffffffffffffffffffffffffffffffff16141515612b5b5760006002600083815260200190815260200160002060006101000a81548173ffffffffffffffffffffffffffffffffffffffff021916908373ffffffffffffffffffffffffffffffffffffffff1602179055505b50565b612b7660018260000154612baa90919063ffffffff16565b816000018190555050565b6001816000016000828254019250508190555050565b600080823b905060008111915050919050565b6000828211151515612c24576040517f08c379a000000000000000000000000000000000000000000000000000000000815260040180806020018281038252601e8152602001807f536166654d6174683a207375627472616374696f6e206f766572666c6f77000081525060200191505060405180910390fd5b600082840390508091505092915050565b828054828255906000526020600020908101928215612c71579160200282015b82811115612c70578251825591602001919060010190612c55565b5b509050612c7e9190612c82565b5090565b612ca491905b80821115612ca0576000816000905550600101612c88565b5090565b9056fea165627a7a7230582046af3f59e58a450a79b44d65e34566f3197f7412f71c7d5e581e58b807da79500029",
  "source": "pragma solidity ^0.5.0;\n\nimport \"@openzeppelin/contracts/token/ERC721/ERC721.sol\";\nimport \"@openzeppelin/contracts/ownership/Ownable.sol\";\n\ncontract DronesERC721 is ERC721, Ownable {\n\n    struct Dron {\n        uint256 id;\n        address empresa;\n        uint256 alturaVueloMinima;\n        uint256 alturaVueloMaxima;\n        uint256[] pesticidas;\n        uint256 coste;\n    }\n\n    uint256 private contador = 0;\n    mapping(uint256 => Dron) private drones;\n\n    event DronRegistrado(\n        uint256 indexed id,\n        address indexed empresa,\n        uint256 alturaVueloMinima,\n        uint256 alturaVueloMaxima,\n        uint256[] pesticidas,\n        uint256 coste\n    );\n\n    /**\n     * @dev Se lanza si la cuenta no es valida\n     */\n    modifier cuentaValida(address cuenta) {\n        require (cuenta != address(0), 'La cuenta no es valida');\n        _;\n    }\n\n    /**\n     * @dev Se lanza si el dron no existe\n     */\n    modifier dronExiste(uint256 dronId) {\n        require (drones[dronId].id == dronId, 'El dron solicitado no existe');\n        _;\n    }\n\n    /**@dev Devuelve si un dron esta registrado.\n     * @param dronId Identificador del dron.\n     * @return Booleano indicando si el dron esta registrado.\n     */\n    function isDron(uint256 dronId) public view returns (bool) {\n        return drones[dronId].id == dronId;\n    }\n\n    /**@dev Devuelve el numero de drones registrados.\n     * @return contador Numero de drones registrados.\n     */\n    function numeroDrones() public view returns (uint256) {\n        return contador;\n    }\n\n    /**@dev Devuelve los datos del registro de un dron.\n     * @param dronId Identificador del dron.\n     * @return id Identificador del dron.\n     * @return empresa Cuenta de la empresa propietaria del dron.\n     * @return alturaVueloMinima Altura de vuelo minima del dron.\n     * @return alturaVueloMaxima Altura de vuelo maxima del dron.\n     * @return pesticidas Pesticidas que maneja el dron.\n     * @return coste Coste de contratacion del dron.\n     */\n    function getDron(uint256 dronId) public view dronExiste(dronId) returns (\n        uint256 id,\n        address empresa,\n        uint256 alturaVueloMinima,\n        uint256 alturaVueloMaxima,\n        uint256[] memory pesticidas,\n        uint256 coste\n        ) {\n            id = drones[dronId].id;\n            empresa = drones[dronId].empresa;\n            alturaVueloMinima = drones[dronId].alturaVueloMinima;\n            alturaVueloMaxima = drones[dronId].alturaVueloMaxima;\n            pesticidas = drones[dronId].pesticidas;\n            coste = drones[dronId].coste;\n    }\n\n    /**@dev Crea un registro de un nuevo dron\n     * @param _empresa Cuenta de la empresa a la que pertenece el dron\n     * @param _alturaVueloMinima Altura de vuelo minima del dron\n     * @param _alturaVueloMaxima Altura de vuelo maxima del dron\n     * @param _pesticidas Pesticidas manejados por el dron\n     * @param _coste Coste de contratacion del dron\n     */\n    function mint(\n        address _empresa,\n        uint256 _alturaVueloMinima,\n        uint256 _alturaVueloMaxima,\n        uint256[] memory _pesticidas,\n        uint256 _coste\n    ) public onlyOwner cuentaValida(_empresa) {\n        contador++;\n\n        ERC721._mint(_empresa, contador);\n\n        drones[contador].id = contador;\n        drones[contador].empresa = _empresa;\n        drones[contador].alturaVueloMinima = _alturaVueloMinima;\n        drones[contador].alturaVueloMaxima = _alturaVueloMaxima;\n        drones[contador].pesticidas = _pesticidas;\n        drones[contador].coste = _coste;\n\n        emit DronRegistrado(contador, _empresa, _alturaVueloMinima, _alturaVueloMaxima, _pesticidas, _coste);\n    }\n\n    /**@dev Transfiere la propiedad de un dron\n     * @param dronId Identificador del dron\n     * @param to Cuenta del nuevo propietario del dron\n     */\n    function transferirDron(uint256 dronId, address to)\n        public\n        onlyOwner\n        dronExiste(dronId)\n        cuentaValida(to)\n    {\n        ERC721.transferFrom(drones[dronId].empresa, to, dronId);\n\n        drones[dronId].empresa = to;\n    }\n\n    /**@dev Elimina el registro de un dron\n     * @param dronId Identificador del dron\n     */\n    function burn(uint256 dronId) public onlyOwner dronExiste(dronId) {\n        ERC721._burn(drones[dronId].empresa, dronId);\n\n        drones[dronId].id = 0;\n    }\n}",
  "sourcePath": "/home/alastria/TFE_Dronchain/smart_contracts/contracts/DronesERC721.sol",
  "compiler": {
    "name": "solc",
    "version": "0.5.0+commit.1d4f565a.Emscripten.clang"
  },
  "schemaVersion": "3.0.9",
  "updatedAt": "2020-03-10T08:07:29.249Z",
  "devdoc": {
    "methods": {
      "approve(address,uint256)": {
        "details": "Approves another address to transfer the given token ID The zero address indicates there is no approved address. There can only be one approved address per token at a given time. Can only be called by the token owner or an approved operator.",
        "params": {
          "to": "address to be approved for the given token ID",
          "tokenId": "uint256 ID of the token to be approved"
        }
      },
      "balanceOf(address)": {
        "details": "Gets the balance of the specified address.",
        "params": {
          "owner": "address to query the balance of"
        },
        "return": "uint256 representing the amount owned by the passed address"
      },
      "burn(uint256)": {
        "details": "Elimina el registro de un dron",
        "params": {
          "dronId": "Identificador del dron"
        }
      },
      "getApproved(uint256)": {
        "details": "Gets the approved address for a token ID, or zero if no address set Reverts if the token ID does not exist.",
        "params": {
          "tokenId": "uint256 ID of the token to query the approval of"
        },
        "return": "address currently approved for the given token ID"
      },
      "getDron(uint256)": {
        "details": "Devuelve los datos del registro de un dron.",
        "params": {
          "dronId": "Identificador del dron."
        },
        "return": "id Identificador del dron.empresa Cuenta de la empresa propietaria del dron.alturaVueloMinima Altura de vuelo minima del dron.alturaVueloMaxima Altura de vuelo maxima del dron.pesticidas Pesticidas que maneja el dron.coste Coste de contratacion del dron."
      },
      "isApprovedForAll(address,address)": {
        "details": "Tells whether an operator is approved by a given owner.",
        "params": {
          "operator": "operator address which you want to query the approval of",
          "owner": "owner address which you want to query the approval of"
        },
        "return": "bool whether the given operator is approved by the given owner"
      },
      "isDron(uint256)": {
        "details": "Devuelve si un dron esta registrado.",
        "params": {
          "dronId": "Identificador del dron."
        },
        "return": "Booleano indicando si el dron esta registrado."
      },
      "isOwner()": {
        "details": "Returns true if the caller is the current owner."
      },
      "mint(address,uint256,uint256,uint256[],uint256)": {
        "details": "Crea un registro de un nuevo dron",
        "params": {
          "_alturaVueloMaxima": "Altura de vuelo maxima del dron",
          "_alturaVueloMinima": "Altura de vuelo minima del dron",
          "_coste": "Coste de contratacion del dron",
          "_empresa": "Cuenta de la empresa a la que pertenece el dron",
          "_pesticidas": "Pesticidas manejados por el dron"
        }
      },
      "numeroDrones()": {
        "details": "Devuelve el numero de drones registrados.",
        "return": "contador Numero de drones registrados."
      },
      "owner()": {
        "details": "Returns the address of the current owner."
      },
      "ownerOf(uint256)": {
        "details": "Gets the owner of the specified token ID.",
        "params": {
          "tokenId": "uint256 ID of the token to query the owner of"
        },
        "return": "address currently marked as the owner of the given token ID"
      },
      "renounceOwnership()": {
        "details": "Leaves the contract without owner. It will not be possible to call `onlyOwner` functions anymore. Can only be called by the current owner.     * > Note: Renouncing ownership will leave the contract without an owner, thereby removing any functionality that is only available to the owner."
      },
      "safeTransferFrom(address,address,uint256)": {
        "details": "Safely transfers the ownership of a given token ID to another address If the target address is a contract, it must implement `onERC721Received`, which is called upon a safe transfer, and return the magic value `bytes4(keccak256(\"onERC721Received(address,address,uint256,bytes)\"))`; otherwise, the transfer is reverted. Requires the msg.sender to be the owner, approved, or operator",
        "params": {
          "from": "current owner of the token",
          "to": "address to receive the ownership of the given token ID",
          "tokenId": "uint256 ID of the token to be transferred"
        }
      },
      "safeTransferFrom(address,address,uint256,bytes)": {
        "details": "Safely transfers the ownership of a given token ID to another address If the target address is a contract, it must implement `onERC721Received`, which is called upon a safe transfer, and return the magic value `bytes4(keccak256(\"onERC721Received(address,address,uint256,bytes)\"))`; otherwise, the transfer is reverted. Requires the msg.sender to be the owner, approved, or operator",
        "params": {
          "_data": "bytes data to send along with a safe transfer check",
          "from": "current owner of the token",
          "to": "address to receive the ownership of the given token ID",
          "tokenId": "uint256 ID of the token to be transferred"
        }
      },
      "setApprovalForAll(address,bool)": {
        "details": "Sets or unsets the approval of a given operator An operator is allowed to transfer all tokens of the sender on their behalf.",
        "params": {
          "approved": "representing the status of the approval to be set",
          "to": "operator address to set the approval"
        }
      },
      "supportsInterface(bytes4)": {
        "details": "See `IERC165.supportsInterface`.     * Time complexity O(1), guaranteed to always use less than 30 000 gas."
      },
      "transferFrom(address,address,uint256)": {
        "details": "Transfers the ownership of a given token ID to another address. Usage of this method is discouraged, use `safeTransferFrom` whenever possible. Requires the msg.sender to be the owner, approved, or operator.",
        "params": {
          "from": "current owner of the token",
          "to": "address to receive the ownership of the given token ID",
          "tokenId": "uint256 ID of the token to be transferred"
        }
      },
      "transferOwnership(address)": {
        "details": "Transfers ownership of the contract to a new account (`newOwner`). Can only be called by the current owner."
      },
      "transferirDron(uint256,address)": {
        "details": "Transfiere la propiedad de un dron",
        "params": {
          "dronId": "Identificador del dron",
          "to": "Cuenta del nuevo propietario del dron"
        }
      }
    }
  },
  "userdoc": {
    "methods": {}
  }
}