{
  "contractName": "Empresas",
  "abi": [
    {
      "constant": false,
      "inputs": [],
      "name": "renounceOwnership",
      "outputs": [],
      "payable": false,
      "stateMutability": "nonpayable",
      "type": "function"
    },
    {
      "constant": true,
      "inputs": [],
      "name": "owner",
      "outputs": [
        {
          "name": "",
          "type": "address"
        }
      ],
      "payable": false,
      "stateMutability": "view",
      "type": "function"
    },
    {
      "constant": true,
      "inputs": [],
      "name": "isOwner",
      "outputs": [
        {
          "name": "",
          "type": "bool"
        }
      ],
      "payable": false,
      "stateMutability": "view",
      "type": "function"
    },
    {
      "constant": false,
      "inputs": [
        {
          "name": "newOwner",
          "type": "address"
        }
      ],
      "name": "transferOwnership",
      "outputs": [],
      "payable": false,
      "stateMutability": "nonpayable",
      "type": "function"
    },
    {
      "anonymous": false,
      "inputs": [
        {
          "indexed": false,
          "name": "_cuenta",
          "type": "address"
        },
        {
          "indexed": false,
          "name": "_nombre",
          "type": "string"
        },
        {
          "indexed": false,
          "name": "_cif",
          "type": "string"
        }
      ],
      "name": "EmpresaRegistrada",
      "type": "event"
    },
    {
      "anonymous": false,
      "inputs": [
        {
          "indexed": true,
          "name": "previousOwner",
          "type": "address"
        },
        {
          "indexed": true,
          "name": "newOwner",
          "type": "address"
        }
      ],
      "name": "OwnershipTransferred",
      "type": "event"
    },
    {
      "constant": false,
      "inputs": [
        {
          "name": "_cuenta",
          "type": "address"
        },
        {
          "name": "_nombre",
          "type": "string"
        },
        {
          "name": "_cif",
          "type": "string"
        }
      ],
      "name": "registrarEmpresa",
      "outputs": [],
      "payable": false,
      "stateMutability": "nonpayable",
      "type": "function"
    },
    {
      "constant": true,
      "inputs": [
        {
          "name": "_cuenta",
          "type": "address"
        }
      ],
      "name": "getDatosEmpresa",
      "outputs": [
        {
          "name": "nombre",
          "type": "string"
        },
        {
          "name": "cif",
          "type": "string"
        }
      ],
      "payable": false,
      "stateMutability": "view",
      "type": "function"
    },
    {
      "constant": true,
      "inputs": [
        {
          "name": "_cuenta",
          "type": "address"
        }
      ],
      "name": "isEmpresa",
      "outputs": [
        {
          "name": "",
          "type": "bool"
        }
      ],
      "payable": false,
      "stateMutability": "view",
      "type": "function"
    }
  ],
  "bytecode": "0x6080604052336000806101000a81548173ffffffffffffffffffffffffffffffffffffffff021916908373ffffffffffffffffffffffffffffffffffffffff1602179055506000809054906101000a900473ffffffffffffffffffffffffffffffffffffffff1673ffffffffffffffffffffffffffffffffffffffff16600073ffffffffffffffffffffffffffffffffffffffff167f8be0079c531659141344cd1fd0a4f28419497f9722a3daafe3b4186f6b6457e060405160405180910390a3610f95806100cf6000396000f3fe608060405260043610610083576000357c0100000000000000000000000000000000000000000000000000000000900463ffffffff168063715018a6146100885780638da5cb5b1461009f5780638f32d59b146100f6578063bdec58f614610125578063df6617ac146102a4578063f2fde38b146103da578063f3dc7c3e1461042b575b600080fd5b34801561009457600080fd5b5061009d610494565b005b3480156100ab57600080fd5b506100b46105cf565b604051808273ffffffffffffffffffffffffffffffffffffffff1673ffffffffffffffffffffffffffffffffffffffff16815260200191505060405180910390f35b34801561010257600080fd5b5061010b6105f8565b604051808215151515815260200191505060405180910390f35b34801561013157600080fd5b506102a26004803603606081101561014857600080fd5b81019080803573ffffffffffffffffffffffffffffffffffffffff1690602001909291908035906020019064010000000081111561018557600080fd5b82018360208201111561019757600080fd5b803590602001918460018302840111640100000000831117156101b957600080fd5b91908080601f016020809104026020016040519081016040528093929190818152602001838380828437600081840152601f19601f8201169050808301925050505050505091929192908035906020019064010000000081111561021c57600080fd5b82018360208201111561022e57600080fd5b8035906020019184600183028401116401000000008311171561025057600080fd5b91908080601f016020809104026020016040519081016040528093929190818152602001838380828437600081840152601f19601f82011690508083019250505050505050919291929050505061064f565b005b3480156102b057600080fd5b506102f3600480360360208110156102c757600080fd5b81019080803573ffffffffffffffffffffffffffffffffffffffff1690602001909291905050506109d2565b604051808060200180602001838103835285818151815260200191508051906020019080838360005b8381101561033757808201518184015260208101905061031c565b50505050905090810190601f1680156103645780820380516001836020036101000a031916815260200191505b50838103825284818151815260200191508051906020019080838360005b8381101561039d578082015181840152602081019050610382565b50505050905090810190601f1680156103ca5780820380516001836020036101000a031916815260200191505b5094505050505060405180910390f35b3480156103e657600080fd5b50610429600480360360208110156103fd57600080fd5b81019080803573ffffffffffffffffffffffffffffffffffffffff169060200190929190505050610c5a565b005b34801561043757600080fd5b5061047a6004803603602081101561044e57600080fd5b81019080803573ffffffffffffffffffffffffffffffffffffffff169060200190929190505050610ce2565b604051808215151515815260200191505060405180910390f35b61049c6105f8565b1515610510576040517f08c379a00000000000000000000000000000000000000000000000000000000081526004018080602001828103825260208152602001807f4f776e61626c653a2063616c6c6572206973206e6f7420746865206f776e657281525060200191505060405180910390fd5b600073ffffffffffffffffffffffffffffffffffffffff166000809054906101000a900473ffffffffffffffffffffffffffffffffffffffff1673ffffffffffffffffffffffffffffffffffffffff167f8be0079c531659141344cd1fd0a4f28419497f9722a3daafe3b4186f6b6457e060405160405180910390a360008060006101000a81548173ffffffffffffffffffffffffffffffffffffffff021916908373ffffffffffffffffffffffffffffffffffffffff160217905550565b60008060009054906101000a900473ffffffffffffffffffffffffffffffffffffffff16905090565b60008060009054906101000a900473ffffffffffffffffffffffffffffffffffffffff1673ffffffffffffffffffffffffffffffffffffffff163373ffffffffffffffffffffffffffffffffffffffff1614905090565b6106576105f8565b15156106cb576040517f08c379a00000000000000000000000000000000000000000000000000000000081526004018080602001828103825260208152602001807f4f776e61626c653a2063616c6c6572206973206e6f7420746865206f776e657281525060200191505060405180910390fd5b82600073ffffffffffffffffffffffffffffffffffffffff168173ffffffffffffffffffffffffffffffffffffffff1614151515610771576040517f08c379a00000000000000000000000000000000000000000000000000000000081526004018080602001828103825260168152602001807f4c61206375656e7461206e6f2065732076616c6964610000000000000000000081525060200191505060405180910390fd5b6080604051908101604052808573ffffffffffffffffffffffffffffffffffffffff16815260200184815260200183815260200160011515815250600160008673ffffffffffffffffffffffffffffffffffffffff1673ffffffffffffffffffffffffffffffffffffffff16815260200190815260200160002060008201518160000160006101000a81548173ffffffffffffffffffffffffffffffffffffffff021916908373ffffffffffffffffffffffffffffffffffffffff160217905550602082015181600101908051906020019061084e929190610ec4565b50604082015181600201908051906020019061086b929190610ec4565b5060608201518160030160006101000a81548160ff0219169083151502179055509050507f32a6e94f06bb7d9963ffa0c55dc525e845e023bde8156141edd9db90f1ac956a848484604051808473ffffffffffffffffffffffffffffffffffffffff1673ffffffffffffffffffffffffffffffffffffffff1681526020018060200180602001838103835285818151815260200191508051906020019080838360005b8381101561092957808201518184015260208101905061090e565b50505050905090810190601f1680156109565780820380516001836020036101000a031916815260200191505b50838103825284818151815260200191508051906020019080838360005b8381101561098f578082015181840152602081019050610974565b50505050905090810190601f1680156109bc5780820380516001836020036101000a031916815260200191505b509550505050505060405180910390a150505050565b60608082600160008273ffffffffffffffffffffffffffffffffffffffff1673ffffffffffffffffffffffffffffffffffffffff16815260200190815260200160002060030160009054906101000a900460ff161515610a9a576040517f08c379a00000000000000000000000000000000000000000000000000000000081526004018080602001828103825260148152602001807f4c6120656d7072657361206e6f2065786973746500000000000000000000000081525060200191505060405180910390fd5b600160008573ffffffffffffffffffffffffffffffffffffffff1673ffffffffffffffffffffffffffffffffffffffff1681526020019081526020016000206001018054600181600116156101000203166002900480601f016020809104026020016040519081016040528092919081815260200182805460018160011615610100020316600290048015610b705780601f10610b4557610100808354040283529160200191610b70565b820191906000526020600020905b815481529060010190602001808311610b5357829003601f168201915b50505050509250600160008573ffffffffffffffffffffffffffffffffffffffff1673ffffffffffffffffffffffffffffffffffffffff1681526020019081526020016000206002018054600181600116156101000203166002900480601f016020809104026020016040519081016040528092919081815260200182805460018160011615610100020316600290048015610c4d5780601f10610c2257610100808354040283529160200191610c4d565b820191906000526020600020905b815481529060010190602001808311610c3057829003601f168201915b5050505050915050915091565b610c626105f8565b1515610cd6576040517f08c379a00000000000000000000000000000000000000000000000000000000081526004018080602001828103825260208152602001807f4f776e61626c653a2063616c6c6572206973206e6f7420746865206f776e657281525060200191505060405180910390fd5b610cdf81610d3b565b50565b6000600160008373ffffffffffffffffffffffffffffffffffffffff1673ffffffffffffffffffffffffffffffffffffffff16815260200190815260200160002060030160009054906101000a900460ff169050919050565b600073ffffffffffffffffffffffffffffffffffffffff168173ffffffffffffffffffffffffffffffffffffffff1614151515610e06576040517f08c379a00000000000000000000000000000000000000000000000000000000081526004018080602001828103825260268152602001807f4f776e61626c653a206e6577206f776e657220697320746865207a65726f206181526020017f646472657373000000000000000000000000000000000000000000000000000081525060400191505060405180910390fd5b8073ffffffffffffffffffffffffffffffffffffffff166000809054906101000a900473ffffffffffffffffffffffffffffffffffffffff1673ffffffffffffffffffffffffffffffffffffffff167f8be0079c531659141344cd1fd0a4f28419497f9722a3daafe3b4186f6b6457e060405160405180910390a3806000806101000a81548173ffffffffffffffffffffffffffffffffffffffff021916908373ffffffffffffffffffffffffffffffffffffffff16021790555050565b828054600181600116156101000203166002900490600052602060002090601f016020900481019282601f10610f0557805160ff1916838001178555610f33565b82800160010185558215610f33579182015b82811115610f32578251825591602001919060010190610f17565b5b509050610f409190610f44565b5090565b610f6691905b80821115610f62576000816000905550600101610f4a565b5090565b9056fea165627a7a72305820166d29ab3ecbb815daf479118a3ff92a95cab4bcdb082e56f71a665a7e690aaa0029",
  "source": "pragma solidity ^0.5.0;\n\nimport \"@openzeppelin/contracts/ownership/Ownable.sol\";\n\n/** @title Empresas.*/\ncontract Empresas is Ownable {\n    struct Empresa {\n        address cuenta;\n        string nombre;\n        string cif;\n        bool existe;\n    }\n\n    mapping(address => Empresa) private empresas;\n\n    event EmpresaRegistrada(address _cuenta, string _nombre, string _cif);\n\n    /**\n     * @dev Se lanza si es llamado por cualquier cuenta de empresa que no exista\n     */\n    modifier empresaValida(address _cuenta) {\n        require(empresas[_cuenta].existe, \"La empresa no existe\");\n        _;\n    }\n\n    /**\n     * @dev Se lanza si la cuenta no es valida\n     */\n    modifier cuentaValida(address cuenta) {\n        require (cuenta != address(0), 'La cuenta no es valida');\n        _;\n    }\n\n    /**@dev Registra una nueva empresa.\n     * @param _cuenta Cuenta de la nueva empresa.\n     * @param _nombre Nombre de la nueva empresa.\n     * @param _cif CIF de la nueva empresa.\n     */\n    function registrarEmpresa(\n        address _cuenta,\n        string memory _nombre,\n        string memory _cif\n    ) public onlyOwner cuentaValida(_cuenta) {\n        empresas[_cuenta] = Empresa(_cuenta, _nombre, _cif, true);\n        emit EmpresaRegistrada(_cuenta, _nombre, _cif);\n    }\n\n    /**@dev Obtiene los datos de una empresa existente.\n     * @param _cuenta Cuenta de la empresa.\n     * @return nombre Nombre recuperado de la empresa.\n     * @return cif CIF recuperado de la empresa.\n     */\n    function getDatosEmpresa(address _cuenta)\n        public\n        view\n        empresaValida(_cuenta)\n        returns (string memory nombre, string memory cif)\n    {\n        nombre = empresas[_cuenta].nombre;\n        cif = empresas[_cuenta].cif;\n    }\n\n    /**\n     * @dev Devuelve si la cuenta corresponde a una empresa.\n     * @param _cuenta Cuenta de la empresa.\n     * @return Booleano indicando si es empresa o no.\n     */\n    function isEmpresa(address _cuenta) public view returns (bool) {\n        return empresas[_cuenta].existe;\n    }\n}\n",
  "sourcePath": "/home/alastria/TFE_Dronchain/smart_contracts/contracts/Empresas.sol",
  "compiler": {
    "name": "solc",
    "version": "0.5.0+commit.1d4f565a.Emscripten.clang"
  },
  "schemaVersion": "3.0.9",
  "updatedAt": "2020-03-10T08:07:29.281Z",
  "devdoc": {
    "methods": {
      "getDatosEmpresa(address)": {
        "details": "Obtiene los datos de una empresa existente.",
        "params": {
          "_cuenta": "Cuenta de la empresa."
        },
        "return": "nombre Nombre recuperado de la empresa.cif CIF recuperado de la empresa."
      },
      "isEmpresa(address)": {
        "details": "Devuelve si la cuenta corresponde a una empresa.",
        "params": {
          "_cuenta": "Cuenta de la empresa."
        },
        "return": "Booleano indicando si es empresa o no."
      },
      "isOwner()": {
        "details": "Returns true if the caller is the current owner."
      },
      "owner()": {
        "details": "Returns the address of the current owner."
      },
      "registrarEmpresa(address,string,string)": {
        "details": "Registra una nueva empresa.",
        "params": {
          "_cif": "CIF de la nueva empresa.",
          "_cuenta": "Cuenta de la nueva empresa.",
          "_nombre": "Nombre de la nueva empresa."
        }
      },
      "renounceOwnership()": {
        "details": "Leaves the contract without owner. It will not be possible to call `onlyOwner` functions anymore. Can only be called by the current owner.     * > Note: Renouncing ownership will leave the contract without an owner, thereby removing any functionality that is only available to the owner."
      },
      "transferOwnership(address)": {
        "details": "Transfers ownership of the contract to a new account (`newOwner`). Can only be called by the current owner."
      }
    },
    "title": "Empresas."
  },
  "userdoc": {
    "methods": {}
  }
}